{
  "contractName": "CustomERC721Collection",
  "abi": [
    {
      "inputs": [
        {
          "internalType": "string",
          "name": "name_",
          "type": "string"
        },
        {
          "internalType": "string",
          "name": "symbol_",
          "type": "string"
        },
        {
          "internalType": "string",
          "name": "collectionMetadata_",
          "type": "string"
        },
        {
          "internalType": "address",
          "name": "marketPlaceAddress_",
          "type": "address"
        }
      ],
      "stateMutability": "nonpayable",
      "type": "constructor"
    },
    {
      "anonymous": false,
      "inputs": [
        {
          "indexed": true,
          "internalType": "address",
          "name": "owner",
          "type": "address"
        },
        {
          "indexed": true,
          "internalType": "address",
          "name": "approved",
          "type": "address"
        },
        {
          "indexed": true,
          "internalType": "uint256",
          "name": "tokenId",
          "type": "uint256"
        }
      ],
      "name": "Approval",
      "type": "event"
    },
    {
      "anonymous": false,
      "inputs": [
        {
          "indexed": true,
          "internalType": "address",
          "name": "owner",
          "type": "address"
        },
        {
          "indexed": true,
          "internalType": "address",
          "name": "operator",
          "type": "address"
        },
        {
          "indexed": false,
          "internalType": "bool",
          "name": "approved",
          "type": "bool"
        }
      ],
      "name": "ApprovalForAll",
      "type": "event"
    },
    {
      "anonymous": false,
      "inputs": [
        {
          "indexed": false,
          "internalType": "address",
          "name": "cAddress",
          "type": "address"
        },
        {
          "indexed": false,
          "internalType": "uint256",
          "name": "tokenId",
          "type": "uint256"
        },
        {
          "indexed": false,
          "internalType": "address",
          "name": "from",
          "type": "address"
        }
      ],
      "name": "BidCanceled",
      "type": "event"
    },
    {
      "anonymous": false,
      "inputs": [
        {
          "indexed": false,
          "internalType": "address",
          "name": "cAddress",
          "type": "address"
        },
        {
          "indexed": false,
          "internalType": "uint256",
          "name": "tokenId",
          "type": "uint256"
        },
        {
          "indexed": false,
          "internalType": "address",
          "name": "from",
          "type": "address"
        },
        {
          "indexed": false,
          "internalType": "uint256",
          "name": "price",
          "type": "uint256"
        }
      ],
      "name": "BidPlaced",
      "type": "event"
    },
    {
      "anonymous": false,
      "inputs": [
        {
          "indexed": false,
          "internalType": "address",
          "name": "cAddress",
          "type": "address"
        },
        {
          "indexed": false,
          "internalType": "uint256",
          "name": "tokenId",
          "type": "uint256"
        },
        {
          "indexed": false,
          "internalType": "string",
          "name": "name",
          "type": "string"
        },
        {
          "indexed": false,
          "internalType": "string",
          "name": "image",
          "type": "string"
        },
        {
          "indexed": false,
          "internalType": "string",
          "name": "collectionName",
          "type": "string"
        },
        {
          "indexed": false,
          "internalType": "string",
          "name": "properties",
          "type": "string"
        },
        {
          "indexed": false,
          "internalType": "address",
          "name": "creator",
          "type": "address"
        },
        {
          "indexed": false,
          "internalType": "string",
          "name": "metadata",
          "type": "string"
        }
      ],
      "name": "NFTCreated",
      "type": "event"
    },
    {
      "anonymous": false,
      "inputs": [
        {
          "indexed": false,
          "internalType": "address",
          "name": "cAddress",
          "type": "address"
        },
        {
          "indexed": false,
          "internalType": "uint256",
          "name": "tokenId",
          "type": "uint256"
        },
        {
          "indexed": false,
          "internalType": "string",
          "name": "eventType",
          "type": "string"
        },
        {
          "indexed": false,
          "internalType": "address",
          "name": "from",
          "type": "address"
        },
        {
          "indexed": false,
          "internalType": "address",
          "name": "to",
          "type": "address"
        },
        {
          "indexed": false,
          "internalType": "uint256",
          "name": "price",
          "type": "uint256"
        }
      ],
      "name": "NFTEvent",
      "type": "event"
    },
    {
      "anonymous": false,
      "inputs": [
        {
          "indexed": true,
          "internalType": "address",
          "name": "from",
          "type": "address"
        },
        {
          "indexed": true,
          "internalType": "address",
          "name": "to",
          "type": "address"
        },
        {
          "indexed": true,
          "internalType": "uint256",
          "name": "tokenId",
          "type": "uint256"
        }
      ],
      "name": "Transfer",
      "type": "event"
    },
    {
      "inputs": [
        {
          "internalType": "address",
          "name": "to",
          "type": "address"
        },
        {
          "internalType": "uint256",
          "name": "tokenId",
          "type": "uint256"
        }
      ],
      "name": "approve",
      "outputs": [],
      "stateMutability": "nonpayable",
      "type": "function"
    },
    {
      "inputs": [
        {
          "internalType": "address",
          "name": "owner",
          "type": "address"
        }
      ],
      "name": "balanceOf",
      "outputs": [
        {
          "internalType": "uint256",
          "name": "",
          "type": "uint256"
        }
      ],
      "stateMutability": "view",
      "type": "function"
    },
    {
      "inputs": [],
      "name": "creator",
      "outputs": [
        {
          "internalType": "address payable",
          "name": "",
          "type": "address"
        }
      ],
      "stateMutability": "view",
      "type": "function"
    },
    {
      "inputs": [
        {
          "internalType": "uint256",
          "name": "tokenId",
          "type": "uint256"
        }
      ],
      "name": "getApproved",
      "outputs": [
        {
          "internalType": "address",
          "name": "",
          "type": "address"
        }
      ],
      "stateMutability": "view",
      "type": "function"
    },
    {
      "inputs": [
        {
          "internalType": "address",
          "name": "owner",
          "type": "address"
        },
        {
          "internalType": "address",
          "name": "operator",
          "type": "address"
        }
      ],
      "name": "isApprovedForAll",
      "outputs": [
        {
          "internalType": "bool",
          "name": "",
          "type": "bool"
        }
      ],
      "stateMutability": "view",
      "type": "function"
    },
    {
      "inputs": [],
      "name": "name",
      "outputs": [
        {
          "internalType": "string",
          "name": "",
          "type": "string"
        }
      ],
      "stateMutability": "view",
      "type": "function"
    },
    {
      "inputs": [
        {
          "internalType": "uint256",
          "name": "tokenId",
          "type": "uint256"
        }
      ],
      "name": "ownerOf",
      "outputs": [
        {
          "internalType": "address",
          "name": "",
          "type": "address"
        }
      ],
      "stateMutability": "view",
      "type": "function"
    },
    {
      "inputs": [
        {
          "internalType": "address",
          "name": "from",
          "type": "address"
        },
        {
          "internalType": "address",
          "name": "to",
          "type": "address"
        },
        {
          "internalType": "uint256",
          "name": "tokenId",
          "type": "uint256"
        }
      ],
      "name": "safeTransferFrom",
      "outputs": [],
      "stateMutability": "nonpayable",
      "type": "function"
    },
    {
      "inputs": [
        {
          "internalType": "address",
          "name": "from",
          "type": "address"
        },
        {
          "internalType": "address",
          "name": "to",
          "type": "address"
        },
        {
          "internalType": "uint256",
          "name": "tokenId",
          "type": "uint256"
        },
        {
          "internalType": "bytes",
          "name": "_data",
          "type": "bytes"
        }
      ],
      "name": "safeTransferFrom",
      "outputs": [],
      "stateMutability": "nonpayable",
      "type": "function"
    },
    {
      "inputs": [
        {
          "internalType": "address",
          "name": "operator",
          "type": "address"
        },
        {
          "internalType": "bool",
          "name": "approved",
          "type": "bool"
        }
      ],
      "name": "setApprovalForAll",
      "outputs": [],
      "stateMutability": "nonpayable",
      "type": "function"
    },
    {
      "inputs": [
        {
          "internalType": "bytes4",
          "name": "interfaceId",
          "type": "bytes4"
        }
      ],
      "name": "supportsInterface",
      "outputs": [
        {
          "internalType": "bool",
          "name": "",
          "type": "bool"
        }
      ],
      "stateMutability": "view",
      "type": "function"
    },
    {
      "inputs": [],
      "name": "symbol",
      "outputs": [
        {
          "internalType": "string",
          "name": "",
          "type": "string"
        }
      ],
      "stateMutability": "view",
      "type": "function"
    },
    {
      "inputs": [
        {
          "internalType": "uint256",
          "name": "tokenId",
          "type": "uint256"
        }
      ],
      "name": "tokenURI",
      "outputs": [
        {
          "internalType": "string",
          "name": "",
          "type": "string"
        }
      ],
      "stateMutability": "view",
      "type": "function"
    },
    {
      "inputs": [
        {
          "internalType": "address",
          "name": "from",
          "type": "address"
        },
        {
          "internalType": "address",
          "name": "to",
          "type": "address"
        },
        {
          "internalType": "uint256",
          "name": "tokenId",
          "type": "uint256"
        }
      ],
      "name": "transferFrom",
      "outputs": [],
      "stateMutability": "nonpayable",
      "type": "function"
    },
    {
      "inputs": [],
      "name": "getCollectionOverview",
      "outputs": [
        {
          "components": [
            {
              "internalType": "address",
              "name": "cAddress",
              "type": "address"
            },
            {
              "internalType": "string",
              "name": "name",
              "type": "string"
            },
            {
              "internalType": "string",
              "name": "symbol",
              "type": "string"
            },
            {
              "internalType": "string",
              "name": "metadataURI",
              "type": "string"
            },
            {
              "internalType": "address",
              "name": "creator",
              "type": "address"
            },
            {
              "internalType": "uint256",
              "name": "nItems",
              "type": "uint256"
            }
          ],
          "internalType": "struct CustomERC721Collection.Collection",
          "name": "",
          "type": "tuple"
        }
      ],
      "stateMutability": "view",
      "type": "function"
    },
    {
      "inputs": [
        {
          "internalType": "string",
          "name": "name_",
          "type": "string"
        },
        {
          "internalType": "string",
          "name": "image_",
          "type": "string"
        },
        {
          "internalType": "string",
          "name": "properties_",
          "type": "string"
        },
        {
          "internalType": "string",
          "name": "metadata_",
          "type": "string"
        },
        {
          "internalType": "bool",
          "name": "forSale_",
          "type": "bool"
        },
        {
          "internalType": "bool",
          "name": "isFixedPrice_",
          "type": "bool"
        },
        {
          "internalType": "uint256",
          "name": "price_",
          "type": "uint256"
        },
        {
          "internalType": "uint256",
          "name": "royalty_",
          "type": "uint256"
        },
        {
          "internalType": "string",
          "name": "unlockableString_",
          "type": "string"
        }
      ],
      "name": "mintNFT",
      "outputs": [],
      "stateMutability": "nonpayable",
      "type": "function"
    },
    {
      "inputs": [
        {
          "internalType": "uint256",
          "name": "tokenId",
          "type": "uint256"
        },
        {
          "internalType": "bool",
          "name": "forSale_",
          "type": "bool"
        }
      ],
      "name": "setForSale",
      "outputs": [],
      "stateMutability": "nonpayable",
      "type": "function"
    },
    {
      "inputs": [
        {
          "internalType": "uint256",
          "name": "tokenId",
          "type": "uint256"
        }
      ],
      "name": "buyFixedPriceNFT",
      "outputs": [],
      "stateMutability": "payable",
      "type": "function"
    },
    {
      "inputs": [
        {
          "internalType": "uint256",
          "name": "tokenId",
          "type": "uint256"
        }
      ],
      "name": "placeBid",
      "outputs": [],
      "stateMutability": "payable",
      "type": "function"
    },
    {
      "inputs": [
        {
          "internalType": "uint256",
          "name": "tokenId",
          "type": "uint256"
        }
      ],
      "name": "cancelBid",
      "outputs": [],
      "stateMutability": "nonpayable",
      "type": "function"
    },
    {
      "inputs": [
        {
          "internalType": "uint256",
          "name": "tokenId",
          "type": "uint256"
        },
        {
          "internalType": "address",
          "name": "to_",
          "type": "address"
        }
      ],
      "name": "sellBiddingNFT",
      "outputs": [],
      "stateMutability": "nonpayable",
      "type": "function"
    },
    {
      "inputs": [
        {
          "internalType": "uint256",
          "name": "tokenId_",
          "type": "uint256"
        }
      ],
      "name": "getUnlockableContent",
      "outputs": [
        {
          "internalType": "string",
          "name": "",
          "type": "string"
        }
      ],
      "stateMutability": "view",
      "type": "function"
    },
    {
      "inputs": [
        {
          "internalType": "uint256",
          "name": "tokenId_",
          "type": "uint256"
        }
      ],
      "name": "getNFTOverview",
      "outputs": [
        {
          "internalType": "address",
          "name": "cAddress",
          "type": "address"
        },
        {
          "internalType": "uint256",
          "name": "tokenId",
          "type": "uint256"
        },
        {
          "internalType": "address",
          "name": "owner",
          "type": "address"
        },
        {
          "internalType": "string",
          "name": "metadataURI",
          "type": "string"
        },
        {
          "components": [
            {
              "internalType": "bool",
              "name": "forSale",
              "type": "bool"
            },
            {
              "internalType": "enum SellType",
              "name": "sellType",
              "type": "uint8"
            },
            {
              "internalType": "uint256",
              "name": "price",
              "type": "uint256"
            },
            {
              "internalType": "uint256",
              "name": "royalty",
              "type": "uint256"
            }
          ],
          "internalType": "struct CustomERC721Collection.NFT",
          "name": "",
          "type": "tuple"
        }
      ],
      "stateMutability": "view",
      "type": "function"
    },
    {
      "inputs": [
        {
          "internalType": "uint256",
          "name": "tokenId",
          "type": "uint256"
        },
        {
          "internalType": "bool",
          "name": "setFixPrice",
          "type": "bool"
        },
        {
          "internalType": "bool",
          "name": "forSale",
          "type": "bool"
        },
        {
          "internalType": "uint256",
          "name": "newPrice",
          "type": "uint256"
        }
      ],
      "name": "modifyListingMechanism",
      "outputs": [],
      "stateMutability": "nonpayable",
      "type": "function"
    }
  ],
  "bytecode": "0x60806040523480156200001157600080fd5b5060405162006509380380620065098339818101604052810190620000379190620003cc565b838360016000819055508160019080519060200190620000599291906200011a565b508060029080519060200190620000729291906200011a565b50505033600960006101000a81548173ffffffffffffffffffffffffffffffffffffffff021916908373ffffffffffffffffffffffffffffffffffffffff16021790555080600b60006101000a81548173ffffffffffffffffffffffffffffffffffffffff021916908373ffffffffffffffffffffffffffffffffffffffff16021790555081600a90805190602001906200010f9291906200011a565b505050505062000500565b8280546200012890620004ca565b90600052602060002090601f0160209004810192826200014c576000855562000198565b82601f106200016757805160ff191683800117855562000198565b8280016001018555821562000198579182015b82811115620001975782518255916020019190600101906200017a565b5b509050620001a79190620001ab565b5090565b5b80821115620001c6576000816000905550600101620001ac565b5090565b6000604051905090565b600080fd5b600080fd5b600080fd5b600080fd5b6000601f19601f8301169050919050565b7f4e487b7100000000000000000000000000000000000000000000000000000000600052604160045260246000fd5b6200023382620001e8565b810181811067ffffffffffffffff82111715620002555762000254620001f9565b5b80604052505050565b60006200026a620001ca565b905062000278828262000228565b919050565b600067ffffffffffffffff8211156200029b576200029a620001f9565b5b620002a682620001e8565b9050602081019050919050565b60005b83811015620002d3578082015181840152602081019050620002b6565b83811115620002e3576000848401525b50505050565b600062000300620002fa846200027d565b6200025e565b9050828152602081018484840111156200031f576200031e620001e3565b5b6200032c848285620002b3565b509392505050565b600082601f8301126200034c576200034b620001de565b5b81516200035e848260208601620002e9565b91505092915050565b600073ffffffffffffffffffffffffffffffffffffffff82169050919050565b6000620003948262000367565b9050919050565b620003a68162000387565b8114620003b257600080fd5b50565b600081519050620003c6816200039b565b92915050565b60008060008060808587031215620003e957620003e8620001d4565b5b600085015167ffffffffffffffff8111156200040a5762000409620001d9565b5b620004188782880162000334565b945050602085015167ffffffffffffffff8111156200043c576200043b620001d9565b5b6200044a8782880162000334565b935050604085015167ffffffffffffffff8111156200046e576200046d620001d9565b5b6200047c8782880162000334565b92505060606200048f87828801620003b5565b91505092959194509250565b7f4e487b7100000000000000000000000000000000000000000000000000000000600052602260045260246000fd5b60006002820490506001821680620004e357607f821691505b60208210811415620004fa57620004f96200049b565b5b50919050565b615ff980620005106000396000f3fe60806040526004361061014b5760003560e01c806395d89b41116100b6578063b88d4fde1161006f578063b88d4fde14610486578063c87b56dd146104af578063e985e9c5146104ec578063f0a6c16b14610529578063f6a32f8f14610552578063fe4867121461057d5761014b565b806395d89b411461039b5780639703ef35146103c65780639979ef45146103ef578063a22cb4651461040b578063af345ec614610434578063afc7fbd51461045d5761014b565b80632af6c448116101085780632af6c448146102725780632f4978561461028e57806342842e0e146102cf5780636352211e146102f85780636fe042941461033557806370a082311461035e5761014b565b806301ffc9a71461015057806302d05d3f1461018d57806306fdde03146101b8578063081812fc146101e3578063095ea7b31461022057806323b872dd14610249575b600080fd5b34801561015c57600080fd5b50610177600480360381019061017291906136bf565b6105ba565b6040516101849190613707565b60405180910390f35b34801561019957600080fd5b506101a261069c565b6040516101af9190613763565b60405180910390f35b3480156101c457600080fd5b506101cd6106c2565b6040516101da9190613817565b60405180910390f35b3480156101ef57600080fd5b5061020a6004803603810190610205919061386f565b610754565b60405161021791906138bd565b60405180910390f35b34801561022c57600080fd5b5061024760048036038101906102429190613904565b6107d9565b005b34801561025557600080fd5b50610270600480360381019061026b9190613944565b6108f1565b005b61028c6004803603810190610287919061386f565b610951565b005b34801561029a57600080fd5b506102b560048036038101906102b0919061386f565b610e91565b6040516102c6959493929190613a90565b60405180910390f35b3480156102db57600080fd5b506102f660048036038101906102f19190613944565b610f52565b005b34801561030457600080fd5b5061031f600480360381019061031a919061386f565b610f72565b60405161032c91906138bd565b60405180910390f35b34801561034157600080fd5b5061035c60048036038101906103579190613b17565b611024565b005b34801561036a57600080fd5b5061038560048036038101906103809190613b7e565b6111eb565b6040516103929190613bab565b60405180910390f35b3480156103a757600080fd5b506103b06112a3565b6040516103bd9190613817565b60405180910390f35b3480156103d257600080fd5b506103ed60048036038101906103e8919061386f565b611335565b005b6104096004803603810190610404919061386f565b6115cf565b005b34801561041757600080fd5b50610432600480360381019061042d9190613bc6565b611908565b005b34801561044057600080fd5b5061045b60048036038101906104569190613c06565b61191e565b005b34801561046957600080fd5b50610484600480360381019061047f9190613d7b565b611f32565b005b34801561049257600080fd5b506104ad60048036038101906104a89190613f72565b6121c1565b005b3480156104bb57600080fd5b506104d660048036038101906104d1919061386f565b612223565b6040516104e39190613817565b60405180910390f35b3480156104f857600080fd5b50610513600480360381019061050e9190613ff5565b612375565b6040516105209190613707565b60405180910390f35b34801561053557600080fd5b50610550600480360381019061054b9190614035565b612409565b005b34801561055e57600080fd5b50610567612587565b6040516105749190614165565b60405180910390f35b34801561058957600080fd5b506105a4600480360381019061059f919061386f565b6126b0565b6040516105b19190613817565b60405180910390f35b60007f80ac58cd000000000000000000000000000000000000000000000000000000007bffffffffffffffffffffffffffffffffffffffffffffffffffffffff1916827bffffffffffffffffffffffffffffffffffffffffffffffffffffffff1916148061068557507f5b5e139f000000000000000000000000000000000000000000000000000000007bffffffffffffffffffffffffffffffffffffffffffffffffffffffff1916827bffffffffffffffffffffffffffffffffffffffffffffffffffffffff1916145b806106955750610694826127cb565b5b9050919050565b600960009054906101000a900473ffffffffffffffffffffffffffffffffffffffff1681565b6060600180546106d1906141b6565b80601f01602080910402602001604051908101604052809291908181526020018280546106fd906141b6565b801561074a5780601f1061071f5761010080835404028352916020019161074a565b820191906000526020600020905b81548152906001019060200180831161072d57829003601f168201915b5050505050905090565b600061075f82612835565b61079e576040517f08c379a00000000000000000000000000000000000000000000000000000000081526004016107959061425a565b60405180910390fd5b6005600083815260200190815260200160002060009054906101000a900473ffffffffffffffffffffffffffffffffffffffff169050919050565b60006107e482610f72565b90508073ffffffffffffffffffffffffffffffffffffffff168373ffffffffffffffffffffffffffffffffffffffff161415610855576040517f08c379a000000000000000000000000000000000000000000000000000000000815260040161084c906142ec565b60405180910390fd5b8073ffffffffffffffffffffffffffffffffffffffff166108746128a1565b73ffffffffffffffffffffffffffffffffffffffff1614806108a357506108a28161089d6128a1565b612375565b5b6108e2576040517f08c379a00000000000000000000000000000000000000000000000000000000081526004016108d99061437e565b60405180910390fd5b6108ec83836128a9565b505050565b6109026108fc6128a1565b82612962565b610941576040517f08c379a000000000000000000000000000000000000000000000000000000000815260040161093890614410565b60405180910390fd5b61094c838383612a40565b505050565b60026000541415610997576040517f08c379a000000000000000000000000000000000000000000000000000000000815260040161098e9061447c565b60405180910390fd5b60026000819055506109a96008612c9c565b8111156109eb576040517f08c379a00000000000000000000000000000000000000000000000000000000081526004016109e290614534565b60405180910390fd5b6000600c60008381526020019081526020016000206040518060800160405290816000820160009054906101000a900460ff161515151581526020016000820160019054906101000a900460ff166001811115610a4b57610a4a6139b5565b5b6001811115610a5d57610a5c6139b5565b5b81526020016001820154815260200160028201548152505090506000610a8283610f72565b905060006001811115610a9857610a976139b5565b5b82602001516001811115610aaf57610aae6139b5565b5b14610aef576040517f08c379a0000000000000000000000000000000000000000000000000000000008152600401610ae6906145c6565b60405180910390fd5b8160000151610b33576040517f08c379a0000000000000000000000000000000000000000000000000000000008152600401610b2a90614658565b60405180910390fd5b8073ffffffffffffffffffffffffffffffffffffffff163373ffffffffffffffffffffffffffffffffffffffff161415610ba2576040517f08c379a0000000000000000000000000000000000000000000000000000000008152600401610b99906146ea565b60405180910390fd5b81604001513414610be8576040517f08c379a0000000000000000000000000000000000000000000000000000000008152600401610bdf906147a2565b60405180910390fd5b600960009054906101000a900473ffffffffffffffffffffffffffffffffffffffff1673ffffffffffffffffffffffffffffffffffffffff166108fc606484606001518560400151610c3a91906147f1565b610c44919061487a565b9081150290604051600060405180830381858888f19350505050158015610c6f573d6000803e3d6000fd5b50600b60009054906101000a900473ffffffffffffffffffffffffffffffffffffffff1673ffffffffffffffffffffffffffffffffffffffff166108fc60648460400151610cbd919061487a565b9081150290604051600060405180830381858888f19350505050158015610ce8573d6000803e3d6000fd5b508073ffffffffffffffffffffffffffffffffffffffff166108fc6064600185606001516064610d1891906148ab565b610d2291906148ab565b8560400151610d3191906147f1565b610d3b919061487a565b9081150290604051600060405180830381858888f19350505050158015610d66573d6000803e3d6000fd5b50600b60009054906101000a900473ffffffffffffffffffffffffffffffffffffffff1673ffffffffffffffffffffffffffffffffffffffff1663c63d15fd308333876040518563ffffffff1660e01b8152600401610dc894939291906148df565b600060405180830381600087803b158015610de257600080fd5b505af1158015610df6573d6000803e3d6000fd5b50505050610e26600b60009054906101000a900473ffffffffffffffffffffffffffffffffffffffff16846107d9565b610e31836000612409565b7fd150b62f2313c33b378415934acdff9ca2554598f9325710306b1c3e274b741b3084833364e8d4a510008760400151610e6b919061487a565b604051610e7c959493929190614970565b60405180910390a15050600160008190555050565b60008060006060610ea0613512565b3086610eab88610f72565b610eb489612223565b600c60008b8152602001908152602001600020806040518060800160405290816000820160009054906101000a900460ff161515151581526020016000820160019054906101000a900460ff166001811115610f1357610f126139b5565b5b6001811115610f2557610f246139b5565b5b81526020016001820154815260200160028201548152505090509450945094509450945091939590929450565b610f6d838383604051806020016040528060008152506121c1565b505050565b6000806003600084815260200190815260200160002060009054906101000a900473ffffffffffffffffffffffffffffffffffffffff169050600073ffffffffffffffffffffffffffffffffffffffff168173ffffffffffffffffffffffffffffffffffffffff16141561101b576040517f08c379a000000000000000000000000000000000000000000000000000000000815260040161101290614a48565b60405180910390fd5b80915050919050565b61102e6008612c9c565b841115611070576040517f08c379a000000000000000000000000000000000000000000000000000000000815260040161106790614b00565b60405180910390fd5b61107984610f72565b73ffffffffffffffffffffffffffffffffffffffff163373ffffffffffffffffffffffffffffffffffffffff16146110e6576040517f08c379a00000000000000000000000000000000000000000000000000000000081526004016110dd90614b92565b60405180910390fd5b600060018111156110fa576110f96139b5565b5b600c600086815260200190815260200160002060000160019054906101000a900460ff1660018111156111305761112f6139b5565b5b14156111e5578261119a576001600c600086815260200190815260200160002060000160016101000a81548160ff02191690836001811115611175576111746139b5565b5b021790555080600c6000868152602001908152602001600020600101819055506111e4565b81600c600086815260200190815260200160002060000160006101000a81548160ff02191690831515021790555080600c6000868152602001908152602001600020600101819055505b5b50505050565b60008073ffffffffffffffffffffffffffffffffffffffff168273ffffffffffffffffffffffffffffffffffffffff16141561125c576040517f08c379a000000000000000000000000000000000000000000000000000000000815260040161125390614c24565b60405180910390fd5b600460008373ffffffffffffffffffffffffffffffffffffffff1673ffffffffffffffffffffffffffffffffffffffff168152602001908152602001600020549050919050565b6060600280546112b2906141b6565b80601f01602080910402602001604051908101604052809291908181526020018280546112de906141b6565b801561132b5780601f106113005761010080835404028352916020019161132b565b820191906000526020600020905b81548152906001019060200180831161130e57829003601f168201915b5050505050905090565b61133f6008612c9c565b811115611381576040517f08c379a000000000000000000000000000000000000000000000000000000000815260040161137890614cb6565b60405180910390fd5b600180811115611394576113936139b5565b5b600c600083815260200190815260200160002060000160019054906101000a900460ff1660018111156113ca576113c96139b5565b5b1461140a576040517f08c379a000000000000000000000000000000000000000000000000000000000815260040161140190614d48565b60405180910390fd5b6000600d600083815260200190815260200160002060003373ffffffffffffffffffffffffffffffffffffffff1673ffffffffffffffffffffffffffffffffffffffff16815260200190815260200160002054141561149e576040517f08c379a000000000000000000000000000000000000000000000000000000000815260040161149590614dda565b60405180910390fd5b6000600d600083815260200190815260200160002060003373ffffffffffffffffffffffffffffffffffffffff1673ffffffffffffffffffffffffffffffffffffffff1681526020019081526020016000205490506000600d600084815260200190815260200160002060003373ffffffffffffffffffffffffffffffffffffffff1673ffffffffffffffffffffffffffffffffffffffff168152602001908152602001600020819055503373ffffffffffffffffffffffffffffffffffffffff166108fc829081150290604051600060405180830381858888f1935050505015801561158f573d6000803e3d6000fd5b507fb4b7bfeef342bc38bed50c4af23900b8bfe1ef97943592a983c896816c109d9d3083336040516115c393929190614dfa565b60405180910390a15050565b6115d96008612c9c565b81111561161b576040517f08c379a000000000000000000000000000000000000000000000000000000000815260040161161290614ea3565b60405180910390fd5b6000600c60008381526020019081526020016000206040518060800160405290816000820160009054906101000a900460ff161515151581526020016000820160019054906101000a900460ff16600181111561167b5761167a6139b5565b5b600181111561168d5761168c6139b5565b5b81526020016001820154815260200160028201548152505090506001808111156116ba576116b96139b5565b5b816020015160018111156116d1576116d06139b5565b5b14611711576040517f08c379a000000000000000000000000000000000000000000000000000000000815260040161170890614f35565b60405180910390fd5b61171a82610f72565b73ffffffffffffffffffffffffffffffffffffffff163373ffffffffffffffffffffffffffffffffffffffff161415611788576040517f08c379a000000000000000000000000000000000000000000000000000000000815260040161177f90614fc7565b60405180910390fd5b6000600d600084815260200190815260200160002060003373ffffffffffffffffffffffffffffffffffffffff1673ffffffffffffffffffffffffffffffffffffffff168152602001908152602001600020541461181b576040517f08c379a000000000000000000000000000000000000000000000000000000000815260040161181290615059565b60405180910390fd5b8060400151341015611862576040517f08c379a000000000000000000000000000000000000000000000000000000000815260040161185990615111565b60405180910390fd5b34600d600084815260200190815260200160002060003373ffffffffffffffffffffffffffffffffffffffff1673ffffffffffffffffffffffffffffffffffffffff168152602001908152602001600020819055507f0158f5674dc243762459b88cfc91b10d2d1ef9d40821cca978c2b680aa44468230833364e8d4a51000346118ec919061487a565b6040516118fc9493929190615131565b60405180910390a15050565b61191a6119136128a1565b8383612caa565b5050565b60026000541415611964576040517f08c379a000000000000000000000000000000000000000000000000000000000815260040161195b9061447c565b60405180910390fd5b60026000819055506119766008612c9c565b8211156119b8576040517f08c379a00000000000000000000000000000000000000000000000000000000081526004016119af90614b00565b60405180910390fd5b6000600c60008481526020019081526020016000206040518060800160405290816000820160009054906101000a900460ff161515151581526020016000820160019054906101000a900460ff166001811115611a1857611a176139b5565b5b6001811115611a2a57611a296139b5565b5b81526020016001820154815260200160028201548152505090506000611a4f84610f72565b90508073ffffffffffffffffffffffffffffffffffffffff163373ffffffffffffffffffffffffffffffffffffffff1614611abf576040517f08c379a0000000000000000000000000000000000000000000000000000000008152600401611ab6906151e8565b60405180910390fd5b600180811115611ad257611ad16139b5565b5b600c600086815260200190815260200160002060000160019054906101000a900460ff166001811115611b0857611b076139b5565b5b14611b48576040517f08c379a0000000000000000000000000000000000000000000000000000000008152600401611b3f9061527a565b60405180910390fd5b6000600d600086815260200190815260200160002060008573ffffffffffffffffffffffffffffffffffffffff1673ffffffffffffffffffffffffffffffffffffffff168152602001908152602001600020541415611bdc576040517f08c379a0000000000000000000000000000000000000000000000000000000008152600401611bd39061530c565b60405180910390fd5b600960009054906101000a900473ffffffffffffffffffffffffffffffffffffffff1673ffffffffffffffffffffffffffffffffffffffff166108fc60648460600151600d600089815260200190815260200160002060008873ffffffffffffffffffffffffffffffffffffffff1673ffffffffffffffffffffffffffffffffffffffff16815260200190815260200160002054611c7a91906147f1565b611c84919061487a565b9081150290604051600060405180830381858888f19350505050158015611caf573d6000803e3d6000fd5b50600b60009054906101000a900473ffffffffffffffffffffffffffffffffffffffff1673ffffffffffffffffffffffffffffffffffffffff166108fc6064600d600088815260200190815260200160002060008773ffffffffffffffffffffffffffffffffffffffff1673ffffffffffffffffffffffffffffffffffffffff16815260200190815260200160002054611d49919061487a565b9081150290604051600060405180830381858888f19350505050158015611d74573d6000803e3d6000fd5b508073ffffffffffffffffffffffffffffffffffffffff166108fc6064600185606001516064611da491906148ab565b611dae91906148ab565b600d600089815260200190815260200160002060008873ffffffffffffffffffffffffffffffffffffffff1673ffffffffffffffffffffffffffffffffffffffff16815260200190815260200160002054611e0991906147f1565b611e13919061487a565b9081150290604051600060405180830381858888f19350505050158015611e3e573d6000803e3d6000fd5b50611e4a338486610f52565b7fd150b62f2313c33b378415934acdff9ca2554598f9325710306b1c3e274b741b3085838664e8d4a51000600d60008b815260200190815260200160002060008a73ffffffffffffffffffffffffffffffffffffffff1673ffffffffffffffffffffffffffffffffffffffff16815260200190815260200160002054611ed0919061487a565b604051611ee1959493929190614970565b60405180910390a17fb4b7bfeef342bc38bed50c4af23900b8bfe1ef97943592a983c896816c109d9d308585604051611f1c93929190614dfa565b60405180910390a1505060016000819055505050565b600960009054906101000a900473ffffffffffffffffffffffffffffffffffffffff1673ffffffffffffffffffffffffffffffffffffffff163373ffffffffffffffffffffffffffffffffffffffff1614611fc2576040517f08c379a0000000000000000000000000000000000000000000000000000000008152600401611fb99061539e565b60405180910390fd5b611fcc6008612e17565b6000611fd86008612c9c565b9050611fe43382612e2d565b611fee8188612e4b565b841561202157612020600b60009054906101000a900473ffffffffffffffffffffffffffffffffffffffff16826107d9565b5b81600e6000838152602001908152602001600020908051906020019061204892919061354e565b50604051806080016040528087151581526020018661206857600161206b565b60005b600181111561207d5761207c6139b5565b5b815260200185815260200184815250600c600083815260200190815260200160002060008201518160000160006101000a81548160ff02191690831515021790555060208201518160000160016101000a81548160ff021916908360018111156120ea576120e96139b5565b5b021790555060408201518160010155606082015181600201559050507fb7b053339f6f0a15b545aa9d58f55121435edacc099b7565dbe857387679496b30828c8c6121336106c2565b8d600960009054906101000a900473ffffffffffffffffffffffffffffffffffffffff168e60405161216c98979695949392919061541d565b60405180910390a17fd150b62f2313c33b378415934acdff9ca2554598f9325710306b1c3e274b741b308260003360006040516121ad959493929190615545565b60405180910390a150505050505050505050565b6121d26121cc6128a1565b83612962565b612211576040517f08c379a000000000000000000000000000000000000000000000000000000000815260040161220890614410565b60405180910390fd5b61221d84848484612ebf565b50505050565b606061222e82612835565b61226d576040517f08c379a00000000000000000000000000000000000000000000000000000000081526004016122649061561d565b60405180910390fd5b600060076000848152602001908152602001600020805461228d906141b6565b80601f01602080910402602001604051908101604052809291908181526020018280546122b9906141b6565b80156123065780601f106122db57610100808354040283529160200191612306565b820191906000526020600020905b8154815290600101906020018083116122e957829003601f168201915b505050505090506000612317612f1b565b905060008151141561232d578192505050612370565b60008251111561236257808260405160200161234a929190615679565b60405160208183030381529060405292505050612370565b61236b84612f32565b925050505b919050565b6000600660008473ffffffffffffffffffffffffffffffffffffffff1673ffffffffffffffffffffffffffffffffffffffff16815260200190815260200160002060008373ffffffffffffffffffffffffffffffffffffffff1673ffffffffffffffffffffffffffffffffffffffff16815260200190815260200160002060009054906101000a900460ff16905092915050565b6124136008612c9c565b821115612455576040517f08c379a000000000000000000000000000000000000000000000000000000000815260040161244c90615735565b60405180910390fd5b61245e82610f72565b73ffffffffffffffffffffffffffffffffffffffff163373ffffffffffffffffffffffffffffffffffffffff16146124cb576040517f08c379a00000000000000000000000000000000000000000000000000000000081526004016124c2906157c7565b60405180910390fd5b600060018111156124df576124de6139b5565b5b600c600084815260200190815260200160002060000160019054906101000a900460ff166001811115612515576125146139b5565b5b14612555576040517f08c379a000000000000000000000000000000000000000000000000000000000815260040161254c9061587f565b60405180910390fd5b80600c600084815260200190815260200160002060000160006101000a81548160ff0219169083151502179055505050565b61258f6135d4565b6040518060c001604052803073ffffffffffffffffffffffffffffffffffffffff1681526020016125be6106c2565b81526020016125cb6112a3565b8152602001600a80546125dd906141b6565b80601f0160208091040260200160405190810160405280929190818152602001828054612609906141b6565b80156126565780601f1061262b57610100808354040283529160200191612656565b820191906000526020600020905b81548152906001019060200180831161263957829003601f168201915b50505050508152602001600960009054906101000a900473ffffffffffffffffffffffffffffffffffffffff1673ffffffffffffffffffffffffffffffffffffffff1681526020016126a86008612c9c565b815250905090565b60606126bb82610f72565b73ffffffffffffffffffffffffffffffffffffffff163373ffffffffffffffffffffffffffffffffffffffff1614612728576040517f08c379a000000000000000000000000000000000000000000000000000000000815260040161271f90615911565b60405180910390fd5b600e60008381526020019081526020016000208054612746906141b6565b80601f0160208091040260200160405190810160405280929190818152602001828054612772906141b6565b80156127bf5780601f10612794576101008083540402835291602001916127bf565b820191906000526020600020905b8154815290600101906020018083116127a257829003601f168201915b50505050509050919050565b60007f01ffc9a7000000000000000000000000000000000000000000000000000000007bffffffffffffffffffffffffffffffffffffffffffffffffffffffff1916827bffffffffffffffffffffffffffffffffffffffffffffffffffffffff1916149050919050565b60008073ffffffffffffffffffffffffffffffffffffffff166003600084815260200190815260200160002060009054906101000a900473ffffffffffffffffffffffffffffffffffffffff1673ffffffffffffffffffffffffffffffffffffffff1614159050919050565b600033905090565b816005600083815260200190815260200160002060006101000a81548173ffffffffffffffffffffffffffffffffffffffff021916908373ffffffffffffffffffffffffffffffffffffffff160217905550808273ffffffffffffffffffffffffffffffffffffffff1661291c83610f72565b73ffffffffffffffffffffffffffffffffffffffff167f8c5be1e5ebec7d5bd14f71427d1e84f3dd0314c0f7b2291e5b200ac8c7c3b92560405160405180910390a45050565b600061296d82612835565b6129ac576040517f08c379a00000000000000000000000000000000000000000000000000000000081526004016129a3906159a3565b60405180910390fd5b60006129b783610f72565b90508073ffffffffffffffffffffffffffffffffffffffff168473ffffffffffffffffffffffffffffffffffffffff161480612a2657508373ffffffffffffffffffffffffffffffffffffffff16612a0e84610754565b73ffffffffffffffffffffffffffffffffffffffff16145b80612a375750612a368185612375565b5b91505092915050565b8273ffffffffffffffffffffffffffffffffffffffff16612a6082610f72565b73ffffffffffffffffffffffffffffffffffffffff1614612ab6576040517f08c379a0000000000000000000000000000000000000000000000000000000008152600401612aad90615a35565b60405180910390fd5b600073ffffffffffffffffffffffffffffffffffffffff168273ffffffffffffffffffffffffffffffffffffffff161415612b26576040517f08c379a0000000000000000000000000000000000000000000000000000000008152600401612b1d90615ac7565b60405180910390fd5b612b31838383612fd9565b612b3c6000826128a9565b6001600460008573ffffffffffffffffffffffffffffffffffffffff1673ffffffffffffffffffffffffffffffffffffffff1681526020019081526020016000206000828254612b8c91906148ab565b925050819055506001600460008473ffffffffffffffffffffffffffffffffffffffff1673ffffffffffffffffffffffffffffffffffffffff1681526020019081526020016000206000828254612be39190615ae7565b92505081905550816003600083815260200190815260200160002060006101000a81548173ffffffffffffffffffffffffffffffffffffffff021916908373ffffffffffffffffffffffffffffffffffffffff160217905550808273ffffffffffffffffffffffffffffffffffffffff168473ffffffffffffffffffffffffffffffffffffffff167fddf252ad1be2c89b69c2b068fc378daa952ba7f163c4a11628f55a4df523b3ef60405160405180910390a4505050565b600081600001549050919050565b8173ffffffffffffffffffffffffffffffffffffffff168373ffffffffffffffffffffffffffffffffffffffff161415612d19576040517f08c379a0000000000000000000000000000000000000000000000000000000008152600401612d1090615b89565b60405180910390fd5b80600660008573ffffffffffffffffffffffffffffffffffffffff1673ffffffffffffffffffffffffffffffffffffffff16815260200190815260200160002060008473ffffffffffffffffffffffffffffffffffffffff1673ffffffffffffffffffffffffffffffffffffffff16815260200190815260200160002060006101000a81548160ff0219169083151502179055508173ffffffffffffffffffffffffffffffffffffffff168373ffffffffffffffffffffffffffffffffffffffff167f17307eab39ab6107e8899845ad3d59bd9653f200f220920489ca2b5937696c3183604051612e0a9190613707565b60405180910390a3505050565b6001816000016000828254019250508190555050565b612e47828260405180602001604052806000815250612fde565b5050565b612e5482612835565b612e93576040517f08c379a0000000000000000000000000000000000000000000000000000000008152600401612e8a90615c1b565b60405180910390fd5b80600760008481526020019081526020016000209080519060200190612eba92919061354e565b505050565b612eca848484612a40565b612ed684848484613039565b612f15576040517f08c379a0000000000000000000000000000000000000000000000000000000008152600401612f0c90615cad565b60405180910390fd5b50505050565b606060405180602001604052806000815250905090565b6060612f3d82612835565b612f7c576040517f08c379a0000000000000000000000000000000000000000000000000000000008152600401612f7390615d3f565b60405180910390fd5b6000612f86612f1b565b90506000815111612fa65760405180602001604052806000815250612fd1565b80612fb0846131d0565b604051602001612fc1929190615679565b6040516020818303038152906040525b915050919050565b505050565b612fe88383613331565b612ff56000848484613039565b613034576040517f08c379a000000000000000000000000000000000000000000000000000000000815260040161302b90615cad565b60405180910390fd5b505050565b600061305a8473ffffffffffffffffffffffffffffffffffffffff166134ff565b156131c3578373ffffffffffffffffffffffffffffffffffffffff1663150b7a026130836128a1565b8786866040518563ffffffff1660e01b81526004016130a59493929190615db4565b602060405180830381600087803b1580156130bf57600080fd5b505af19250505080156130f057506040513d601f19601f820116820180604052508101906130ed9190615e15565b60015b613173573d8060008114613120576040519150601f19603f3d011682016040523d82523d6000602084013e613125565b606091505b5060008151141561316b576040517f08c379a000000000000000000000000000000000000000000000000000000000815260040161316290615cad565b60405180910390fd5b805181602001fd5b63150b7a0260e01b7bffffffffffffffffffffffffffffffffffffffffffffffffffffffff1916817bffffffffffffffffffffffffffffffffffffffffffffffffffffffff1916149150506131c8565b600190505b949350505050565b60606000821415613218576040518060400160405280600181526020017f3000000000000000000000000000000000000000000000000000000000000000815250905061332c565b600082905060005b6000821461324a57808061323390615e42565b915050600a82613243919061487a565b9150613220565b60008167ffffffffffffffff81111561326657613265613c50565b5b6040519080825280601f01601f1916602001820160405280156132985781602001600182028036833780820191505090505b5090505b60008514613325576001826132b191906148ab565b9150600a856132c09190615e8b565b60306132cc9190615ae7565b60f81b8183815181106132e2576132e1615ebc565b5b60200101907effffffffffffffffffffffffffffffffffffffffffffffffffffffffffffff1916908160001a905350600a8561331e919061487a565b945061329c565b8093505050505b919050565b600073ffffffffffffffffffffffffffffffffffffffff168273ffffffffffffffffffffffffffffffffffffffff1614156133a1576040517f08c379a000000000000000000000000000000000000000000000000000000000815260040161339890615f37565b60405180910390fd5b6133aa81612835565b156133ea576040517f08c379a00000000000000000000000000000000000000000000000000000000081526004016133e190615fa3565b60405180910390fd5b6133f660008383612fd9565b6001600460008473ffffffffffffffffffffffffffffffffffffffff1673ffffffffffffffffffffffffffffffffffffffff16815260200190815260200160002060008282546134469190615ae7565b92505081905550816003600083815260200190815260200160002060006101000a81548173ffffffffffffffffffffffffffffffffffffffff021916908373ffffffffffffffffffffffffffffffffffffffff160217905550808273ffffffffffffffffffffffffffffffffffffffff16600073ffffffffffffffffffffffffffffffffffffffff167fddf252ad1be2c89b69c2b068fc378daa952ba7f163c4a11628f55a4df523b3ef60405160405180910390a45050565b600080823b905060008111915050919050565b60405180608001604052806000151581526020016000600181111561353a576135396139b5565b5b815260200160008152602001600081525090565b82805461355a906141b6565b90600052602060002090601f01602090048101928261357c57600085556135c3565b82601f1061359557805160ff19168380011785556135c3565b828001600101855582156135c3579182015b828111156135c25782518255916020019190600101906135a7565b5b5090506135d09190613636565b5090565b6040518060c00160405280600073ffffffffffffffffffffffffffffffffffffffff168152602001606081526020016060815260200160608152602001600073ffffffffffffffffffffffffffffffffffffffff168152602001600081525090565b5b8082111561364f576000816000905550600101613637565b5090565b6000604051905090565b600080fd5b600080fd5b60007fffffffff0000000000000000000000000000000000000000000000000000000082169050919050565b61369c81613667565b81146136a757600080fd5b50565b6000813590506136b981613693565b92915050565b6000602082840312156136d5576136d461365d565b5b60006136e3848285016136aa565b91505092915050565b60008115159050919050565b613701816136ec565b82525050565b600060208201905061371c60008301846136f8565b92915050565b600073ffffffffffffffffffffffffffffffffffffffff82169050919050565b600061374d82613722565b9050919050565b61375d81613742565b82525050565b60006020820190506137786000830184613754565b92915050565b600081519050919050565b600082825260208201905092915050565b60005b838110156137b857808201518184015260208101905061379d565b838111156137c7576000848401525b50505050565b6000601f19601f8301169050919050565b60006137e98261377e565b6137f38185613789565b935061380381856020860161379a565b61380c816137cd565b840191505092915050565b6000602082019050818103600083015261383181846137de565b905092915050565b6000819050919050565b61384c81613839565b811461385757600080fd5b50565b60008135905061386981613843565b92915050565b6000602082840312156138855761388461365d565b5b60006138938482850161385a565b91505092915050565b60006138a782613722565b9050919050565b6138b78161389c565b82525050565b60006020820190506138d260008301846138ae565b92915050565b6138e18161389c565b81146138ec57600080fd5b50565b6000813590506138fe816138d8565b92915050565b6000806040838503121561391b5761391a61365d565b5b6000613929858286016138ef565b925050602061393a8582860161385a565b9150509250929050565b60008060006060848603121561395d5761395c61365d565b5b600061396b868287016138ef565b935050602061397c868287016138ef565b925050604061398d8682870161385a565b9150509250925092565b6139a081613839565b82525050565b6139af816136ec565b82525050565b7f4e487b7100000000000000000000000000000000000000000000000000000000600052602160045260246000fd5b600281106139f5576139f46139b5565b5b50565b6000819050613a06826139e4565b919050565b6000613a16826139f8565b9050919050565b613a2681613a0b565b82525050565b613a3581613839565b82525050565b608082016000820151613a5160008501826139a6565b506020820151613a646020850182613a1d565b506040820151613a776040850182613a2c565b506060820151613a8a6060850182613a2c565b50505050565b600061010082019050613aa660008301886138ae565b613ab36020830187613997565b613ac060408301866138ae565b8181036060830152613ad281856137de565b9050613ae16080830184613a3b565b9695505050505050565b613af4816136ec565b8114613aff57600080fd5b50565b600081359050613b1181613aeb565b92915050565b60008060008060808587031215613b3157613b3061365d565b5b6000613b3f8782880161385a565b9450506020613b5087828801613b02565b9350506040613b6187828801613b02565b9250506060613b728782880161385a565b91505092959194509250565b600060208284031215613b9457613b9361365d565b5b6000613ba2848285016138ef565b91505092915050565b6000602082019050613bc06000830184613997565b92915050565b60008060408385031215613bdd57613bdc61365d565b5b6000613beb858286016138ef565b9250506020613bfc85828601613b02565b9150509250929050565b60008060408385031215613c1d57613c1c61365d565b5b6000613c2b8582860161385a565b9250506020613c3c858286016138ef565b9150509250929050565b600080fd5b600080fd5b7f4e487b7100000000000000000000000000000000000000000000000000000000600052604160045260246000fd5b613c88826137cd565b810181811067ffffffffffffffff82111715613ca757613ca6613c50565b5b80604052505050565b6000613cba613653565b9050613cc68282613c7f565b919050565b600067ffffffffffffffff821115613ce657613ce5613c50565b5b613cef826137cd565b9050602081019050919050565b82818337600083830152505050565b6000613d1e613d1984613ccb565b613cb0565b905082815260208101848484011115613d3a57613d39613c4b565b5b613d45848285613cfc565b509392505050565b600082601f830112613d6257613d61613c46565b5b8135613d72848260208601613d0b565b91505092915050565b60008060008060008060008060006101208a8c031215613d9e57613d9d61365d565b5b60008a013567ffffffffffffffff811115613dbc57613dbb613662565b5b613dc88c828d01613d4d565b99505060208a013567ffffffffffffffff811115613de957613de8613662565b5b613df58c828d01613d4d565b98505060408a013567ffffffffffffffff811115613e1657613e15613662565b5b613e228c828d01613d4d565b97505060608a013567ffffffffffffffff811115613e4357613e42613662565b5b613e4f8c828d01613d4d565b9650506080613e608c828d01613b02565b95505060a0613e718c828d01613b02565b94505060c0613e828c828d0161385a565b93505060e0613e938c828d0161385a565b9250506101008a013567ffffffffffffffff811115613eb557613eb4613662565b5b613ec18c828d01613d4d565b9150509295985092959850929598565b600067ffffffffffffffff821115613eec57613eeb613c50565b5b613ef5826137cd565b9050602081019050919050565b6000613f15613f1084613ed1565b613cb0565b905082815260208101848484011115613f3157613f30613c4b565b5b613f3c848285613cfc565b509392505050565b600082601f830112613f5957613f58613c46565b5b8135613f69848260208601613f02565b91505092915050565b60008060008060808587031215613f8c57613f8b61365d565b5b6000613f9a878288016138ef565b9450506020613fab878288016138ef565b9350506040613fbc8782880161385a565b925050606085013567ffffffffffffffff811115613fdd57613fdc613662565b5b613fe987828801613f44565b91505092959194509250565b6000806040838503121561400c5761400b61365d565b5b600061401a858286016138ef565b925050602061402b858286016138ef565b9150509250929050565b6000806040838503121561404c5761404b61365d565b5b600061405a8582860161385a565b925050602061406b85828601613b02565b9150509250929050565b61407e8161389c565b82525050565b600082825260208201905092915050565b60006140a08261377e565b6140aa8185614084565b93506140ba81856020860161379a565b6140c3816137cd565b840191505092915050565b600060c0830160008301516140e66000860182614075565b50602083015184820360208601526140fe8282614095565b915050604083015184820360408601526141188282614095565b915050606083015184820360608601526141328282614095565b91505060808301516141476080860182614075565b5060a083015161415a60a0860182613a2c565b508091505092915050565b6000602082019050818103600083015261417f81846140ce565b905092915050565b7f4e487b7100000000000000000000000000000000000000000000000000000000600052602260045260246000fd5b600060028204905060018216806141ce57607f821691505b602082108114156141e2576141e1614187565b5b50919050565b7f4552433732313a20617070726f76656420717565727920666f72206e6f6e657860008201527f697374656e7420746f6b656e0000000000000000000000000000000000000000602082015250565b6000614244602c83613789565b915061424f826141e8565b604082019050919050565b6000602082019050818103600083015261427381614237565b9050919050565b7f4552433732313a20617070726f76616c20746f2063757272656e74206f776e6560008201527f7200000000000000000000000000000000000000000000000000000000000000602082015250565b60006142d6602183613789565b91506142e18261427a565b604082019050919050565b60006020820190508181036000830152614305816142c9565b9050919050565b7f4552433732313a20617070726f76652063616c6c6572206973206e6f74206f7760008201527f6e6572206e6f7220617070726f76656420666f7220616c6c0000000000000000602082015250565b6000614368603883613789565b91506143738261430c565b604082019050919050565b600060208201905081810360008301526143978161435b565b9050919050565b7f4552433732313a207472616e736665722063616c6c6572206973206e6f74206f60008201527f776e6572206e6f7220617070726f766564000000000000000000000000000000602082015250565b60006143fa603183613789565b91506144058261439e565b604082019050919050565b60006020820190508181036000830152614429816143ed565b9050919050565b7f5265656e7472616e637947756172643a207265656e7472616e742063616c6c00600082015250565b6000614466601f83613789565b915061447182614430565b602082019050919050565b6000602082019050818103600083015261449581614459565b9050919050565b7f4d61726b6574706c616365203a20627579466978656450726963654e4654202d60008201527f3e20746f6b656e496420646f65736e277420636f72726573706f6e6420746f2060208201527f616e79204e465400000000000000000000000000000000000000000000000000604082015250565b600061451e604783613789565b91506145298261449c565b606082019050919050565b6000602082019050818103600083015261454d81614511565b9050919050565b7f4d61726b6574706c616365203a20706c616365426964202d3e204e465420697360008201527f206c697374656420666f722062696473206f6e6c790000000000000000000000602082015250565b60006145b0603583613789565b91506145bb82614554565b604082019050919050565b600060208201905081810360008301526145df816145a3565b9050919050565b7f4d61726b6574706c616365203a20627579466978656450726963654e4654202d60008201527f3e204e4654206973206e6f7420666f722073616c650000000000000000000000602082015250565b6000614642603583613789565b915061464d826145e6565b604082019050919050565b6000602082019050818103600083015261467181614635565b9050919050565b7f4d61726b6574706c616365203a20627579466978656450726963654e4654202d60008201527f3e204f776e65722063616e277420627579000000000000000000000000000000602082015250565b60006146d4603183613789565b91506146df82614678565b604082019050919050565b60006020820190508181036000830152614703816146c7565b9050919050565b7f4d61726b6574706c616365203a20627579466978656450726963654e4654202d60008201527f3e20506c656173652073656e6420657861637420616d6f756e7420617320707260208201527f6963650000000000000000000000000000000000000000000000000000000000604082015250565b600061478c604383613789565b91506147978261470a565b606082019050919050565b600060208201905081810360008301526147bb8161477f565b9050919050565b7f4e487b7100000000000000000000000000000000000000000000000000000000600052601160045260246000fd5b60006147fc82613839565b915061480783613839565b9250817fffffffffffffffffffffffffffffffffffffffffffffffffffffffffffffffff04831182151516156148405761483f6147c2565b5b828202905092915050565b7f4e487b7100000000000000000000000000000000000000000000000000000000600052601260045260246000fd5b600061488582613839565b915061489083613839565b9250826148a05761489f61484b565b5b828204905092915050565b60006148b682613839565b91506148c183613839565b9250828210156148d4576148d36147c2565b5b828203905092915050565b60006080820190506148f460008301876138ae565b61490160208301866138ae565b61490e60408301856138ae565b61491b6060830184613997565b95945050505050565b7f536f6c6400000000000000000000000000000000000000000000000000000000600082015250565b600061495a600483613789565b915061496582614924565b602082019050919050565b600060c08201905061498560008301886138ae565b6149926020830187613997565b81810360408301526149a38161494d565b90506149b260608301866138ae565b6149bf60808301856138ae565b6149cc60a0830184613997565b9695505050505050565b7f4552433732313a206f776e657220717565727920666f72206e6f6e657869737460008201527f656e7420746f6b656e0000000000000000000000000000000000000000000000602082015250565b6000614a32602983613789565b9150614a3d826149d6565b604082019050919050565b60006020820190508181036000830152614a6181614a25565b9050919050565b7f4d61726b6574706c616365203a2073656c6c42696464696e674e4654202d3e2060008201527f746f6b656e496420646f65736e277420636f72726573706f6e6420746f20616e60208201527f79204e4654000000000000000000000000000000000000000000000000000000604082015250565b6000614aea604583613789565b9150614af582614a68565b606082019050919050565b60006020820190508181036000830152614b1981614add565b9050919050565b7f4d61726b6574706c616365203a206d6f646966794c697374696e674d6563686160008201527f6e69736d202d3e204f6e6c79206f776e65722063616e206d6f64696679000000602082015250565b6000614b7c603d83613789565b9150614b8782614b20565b604082019050919050565b60006020820190508181036000830152614bab81614b6f565b9050919050565b7f4552433732313a2062616c616e636520717565727920666f7220746865207a6560008201527f726f206164647265737300000000000000000000000000000000000000000000602082015250565b6000614c0e602a83613789565b9150614c1982614bb2565b604082019050919050565b60006020820190508181036000830152614c3d81614c01565b9050919050565b7f4d61726b6574706c616365203a2063616e63656c426964202d3e20746f6b656e60008201527f496420646f65736e277420636f72726573706f6e6420746f20616e79204e4654602082015250565b6000614ca0604083613789565b9150614cab82614c44565b604082019050919050565b60006020820190508181036000830152614ccf81614c93565b9050919050565b7f4d61726b6574706c616365203a2063616e63656c426964202d3e204e4654206460008201527f6f65736e277420616c6c6f772062696464696e67000000000000000000000000602082015250565b6000614d32603483613789565b9150614d3d82614cd6565b604082019050919050565b60006020820190508181036000830152614d6181614d25565b9050919050565b7f4d61726b6574706c616365203a2063616e63656c426964202d3e204e6f20626960008201527f6420627920757365720000000000000000000000000000000000000000000000602082015250565b6000614dc4602983613789565b9150614dcf82614d68565b604082019050919050565b60006020820190508181036000830152614df381614db7565b9050919050565b6000606082019050614e0f60008301866138ae565b614e1c6020830185613997565b614e2960408301846138ae565b949350505050565b7f4d61726b6574706c616365203a20706c616365426964202d3e20746f6b656e4960008201527f6420646f65736e277420636f72726573706f6e6420746f20616e79204e465400602082015250565b6000614e8d603f83613789565b9150614e9882614e31565b604082019050919050565b60006020820190508181036000830152614ebc81614e80565b9050919050565b7f4d61726b6574706c616365203a20706c616365426964202d3e204e465420646f60008201527f65736e277420616c6c6f772062696464696e6700000000000000000000000000602082015250565b6000614f1f603383613789565b9150614f2a82614ec3565b604082019050919050565b60006020820190508181036000830152614f4e81614f12565b9050919050565b7f4d61726b6574706c616365203a20706c616365426964202d3e2053656c6c657260008201527f2063616e27742062757900000000000000000000000000000000000000000000602082015250565b6000614fb1602a83613789565b9150614fbc82614f55565b604082019050919050565b60006020820190508181036000830152614fe081614fa4565b9050919050565b7f4d61726b6574706c616365203a20706c616365426964202d3e2043616e27742060008201527f6269642074776963652e2043616e63656c2050726576696f7573206269640000602082015250565b6000615043603e83613789565b915061504e82614fe7565b604082019050919050565b6000602082019050818103600083015261507281615036565b9050919050565b7f4d61726b6574706c616365203a20706c616365426964202d3e2043616e27742060008201527f626964206c6f776572207468616e206e66742773206d696e696d756d2070726960208201527f6365000000000000000000000000000000000000000000000000000000000000604082015250565b60006150fb604283613789565b915061510682615079565b606082019050919050565b6000602082019050818103600083015261512a816150ee565b9050919050565b600060808201905061514660008301876138ae565b6151536020830186613997565b61516060408301856138ae565b61516d6060830184613997565b95945050505050565b7f4d61726b6574706c616365203a2073656c6c42696464696e674e4654202d3e2060008201527f4f6e6c79206f776e65722063616e2073656c6c00000000000000000000000000602082015250565b60006151d2603383613789565b91506151dd82615176565b604082019050919050565b60006020820190508181036000830152615201816151c5565b9050919050565b7f4d61726b6574706c616365203a2073656c6c42696464696e674e4654202d3e2060008201527f4e465420646f65736e277420616c6c6f772062696464696e6700000000000000602082015250565b6000615264603983613789565b915061526f82615208565b604082019050919050565b6000602082019050818103600083015261529381615257565b9050919050565b7f4d61726b6574706c616365203a2073656c6c42696464696e674e4654202d3e2060008201527f4e6f206269642062792075736572000000000000000000000000000000000000602082015250565b60006152f6602e83613789565b91506153018261529a565b604082019050919050565b60006020820190508181036000830152615325816152e9565b9050919050565b7f437573746f6d455243373231436f6c6c656374696f6e203a206d696e74546f6b60008201527f656e202d3e204e6f7420636f6c6c656374696f6e206f776e6572000000000000602082015250565b6000615388603a83613789565b91506153938261532c565b604082019050919050565b600060208201905081810360008301526153b78161537b565b9050919050565b6000819050919050565b60006153e36153de6153d984613722565b6153be565b613722565b9050919050565b60006153f5826153c8565b9050919050565b6000615407826153ea565b9050919050565b615417816153fc565b82525050565b600061010082019050615433600083018b6138ae565b615440602083018a613997565b818103604083015261545281896137de565b9050818103606083015261546681886137de565b9050818103608083015261547a81876137de565b905081810360a083015261548e81866137de565b905061549d60c083018561540e565b81810360e08301526154af81846137de565b90509998505050505050505050565b7f4d696e7465640000000000000000000000000000000000000000000000000000600082015250565b60006154f4600683613789565b91506154ff826154be565b602082019050919050565b6000819050919050565b600061552f61552a6155258461550a565b6153be565b613839565b9050919050565b61553f81615514565b82525050565b600060c08201905061555a60008301886138ae565b6155676020830187613997565b8181036040830152615578816154e7565b905061558760608301866138ae565b61559460808301856138ae565b6155a160a0830184615536565b9695505050505050565b7f45524337323155524953746f726167653a2055524920717565727920666f722060008201527f6e6f6e6578697374656e7420746f6b656e000000000000000000000000000000602082015250565b6000615607603183613789565b9150615612826155ab565b604082019050919050565b60006020820190508181036000830152615636816155fa565b9050919050565b600081905092915050565b60006156538261377e565b61565d818561563d565b935061566d81856020860161379a565b80840191505092915050565b60006156858285615648565b91506156918284615648565b91508190509392505050565b7f4d61726b6574706c616365203a20736574466f7253616c65202d3e20746f6b6560008201527f6e496420646f65736e277420636f72726573706f6e6420746f20616e79204e4660208201527f5400000000000000000000000000000000000000000000000000000000000000604082015250565b600061571f604183613789565b915061572a8261569d565b606082019050919050565b6000602082019050818103600083015261574e81615712565b9050919050565b7f4d61726b6574706c616365203a20736574466f7253616c65202d3e204e6f742060008201527f4e4654206f776e65720000000000000000000000000000000000000000000000602082015250565b60006157b1602983613789565b91506157bc82615755565b604082019050919050565b600060208201905081810360008301526157e0816157a4565b9050919050565b7f4d61726b6574706c616365203a20736574466f7253616c65202d3e2043616e2060008201527f6c6973742f756e6c697374206669786564207072696365206e667473206f6e6c60208201527f7900000000000000000000000000000000000000000000000000000000000000604082015250565b6000615869604183613789565b9150615874826157e7565b606082019050919050565b600060208201905081810360008301526158988161585c565b9050919050565b7f437573746f6d455243373231436f6c6c656374696f6e203a20676574556e6c6f60008201527f636b61626c65436f6e74656e74202d3e204e6f74206e6674206f776e65720000602082015250565b60006158fb603e83613789565b91506159068261589f565b604082019050919050565b6000602082019050818103600083015261592a816158ee565b9050919050565b7f4552433732313a206f70657261746f7220717565727920666f72206e6f6e657860008201527f697374656e7420746f6b656e0000000000000000000000000000000000000000602082015250565b600061598d602c83613789565b915061599882615931565b604082019050919050565b600060208201905081810360008301526159bc81615980565b9050919050565b7f4552433732313a207472616e73666572206f6620746f6b656e2074686174206960008201527f73206e6f74206f776e0000000000000000000000000000000000000000000000602082015250565b6000615a1f602983613789565b9150615a2a826159c3565b604082019050919050565b60006020820190508181036000830152615a4e81615a12565b9050919050565b7f4552433732313a207472616e7366657220746f20746865207a65726f2061646460008201527f7265737300000000000000000000000000000000000000000000000000000000602082015250565b6000615ab1602483613789565b9150615abc82615a55565b604082019050919050565b60006020820190508181036000830152615ae081615aa4565b9050919050565b6000615af282613839565b9150615afd83613839565b9250827fffffffffffffffffffffffffffffffffffffffffffffffffffffffffffffffff03821115615b3257615b316147c2565b5b828201905092915050565b7f4552433732313a20617070726f766520746f2063616c6c657200000000000000600082015250565b6000615b73601983613789565b9150615b7e82615b3d565b602082019050919050565b60006020820190508181036000830152615ba281615b66565b9050919050565b7f45524337323155524953746f726167653a2055524920736574206f66206e6f6e60008201527f6578697374656e7420746f6b656e000000000000000000000000000000000000602082015250565b6000615c05602e83613789565b9150615c1082615ba9565b604082019050919050565b60006020820190508181036000830152615c3481615bf8565b9050919050565b7f4552433732313a207472616e7366657220746f206e6f6e20455243373231526560008201527f63656976657220696d706c656d656e7465720000000000000000000000000000602082015250565b6000615c97603283613789565b9150615ca282615c3b565b604082019050919050565b60006020820190508181036000830152615cc681615c8a565b9050919050565b7f4552433732314d657461646174613a2055524920717565727920666f72206e6f60008201527f6e6578697374656e7420746f6b656e0000000000000000000000000000000000602082015250565b6000615d29602f83613789565b9150615d3482615ccd565b604082019050919050565b60006020820190508181036000830152615d5881615d1c565b9050919050565b600081519050919050565b600082825260208201905092915050565b6000615d8682615d5f565b615d908185615d6a565b9350615da081856020860161379a565b615da9816137cd565b840191505092915050565b6000608082019050615dc960008301876138ae565b615dd660208301866138ae565b615de36040830185613997565b8181036060830152615df58184615d7b565b905095945050505050565b600081519050615e0f81613693565b92915050565b600060208284031215615e2b57615e2a61365d565b5b6000615e3984828501615e00565b91505092915050565b6000615e4d82613839565b91507fffffffffffffffffffffffffffffffffffffffffffffffffffffffffffffffff821415615e8057615e7f6147c2565b5b600182019050919050565b6000615e9682613839565b9150615ea183613839565b925082615eb157615eb061484b565b5b828206905092915050565b7f4e487b7100000000000000000000000000000000000000000000000000000000600052603260045260246000fd5b7f4552433732313a206d696e7420746f20746865207a65726f2061646472657373600082015250565b6000615f21602083613789565b9150615f2c82615eeb565b602082019050919050565b60006020820190508181036000830152615f5081615f14565b9050919050565b7f4552433732313a20746f6b656e20616c7265616479206d696e74656400000000600082015250565b6000615f8d601c83613789565b9150615f9882615f57565b602082019050919050565b60006020820190508181036000830152615fbc81615f80565b905091905056fea26469706673582212203f18fca5c56a0bcf7c1167ac4f9e15778c78cb415fac6bdff5e28bb036f5f7de64736f6c63430008090033",
  "immutableReferences": {},
  "source": "// SPDX-License-Identifier: MIT\npragma solidity ^0.8.6;\n\nimport \"@openzeppelin/contracts/token/ERC721/extensions/ERC721URIStorage.sol\";\nimport \"@openzeppelin/contracts/utils/Counters.sol\";\nimport \"@openzeppelin/contracts/security/ReentrancyGuard.sol\";\nimport \"./Marketplace.sol\";\n\nenum SellType {\n    FixedPrice,\n    Bidding\n}\n\ncontract CustomERC721Collection is ReentrancyGuard, ERC721URIStorage {\n    // Maintaining a counter of no of nfts in collection\n    using Counters for Counters.Counter;\n    Counters.Counter private _tokenIds;\n\n    // Store collection owner/creator\n    address payable public creator;\n\n    // Store collection Metadata\n    string collectionMetadataURI;\n\n    address payable marketPlaceAddress;\n\n    // struct for entire collection data\n    struct Collection {\n        address cAddress;\n        string name;\n        string symbol;\n        string metadataURI;\n        address creator;\n        uint256 nItems;\n    }\n\n    // On Collection creation\n    constructor(\n        string memory name_,\n        string memory symbol_,\n        string memory collectionMetadata_,\n        address marketPlaceAddress_\n    ) ERC721(name_, symbol_) {\n        creator = payable(msg.sender);\n\n        marketPlaceAddress = payable(marketPlaceAddress_);\n\n        collectionMetadataURI = collectionMetadata_;\n    }\n\n    // Get collection overview\n    function getCollectionOverview() public view returns (Collection memory) {\n        return\n            Collection(\n                address(this),\n                name(),\n                symbol(),\n                collectionMetadataURI,\n                creator,\n                _tokenIds.current()\n            );\n    }\n\n    // ** NFT ** //\n\n    // Required NFT data in contract\n    struct NFT {\n        bool forSale;\n        SellType sellType;\n        uint256 price;\n        uint256 royalty;\n    }\n\n    // To store nfts (tokenId => NFT)\n    mapping(uint256 => NFT) nfts;\n\n    // To store bids (tokenId => (address => price))\n    mapping(uint256 => mapping(address => uint256)) bids;\n\n    // tokenId to secret\n    mapping(uint256 => string) unlockableContent;\n\n    // On minting of Nft\n    event NFTCreated(\n        address cAddress,\n        uint256 tokenId,\n        string name,\n        string image,\n        string collectionName,\n        string properties,\n        address creator,\n        string metadata\n    );\n\n    // On mint/transfer/sale of nft\n    event NFTEvent(\n        address cAddress,\n        uint256 tokenId,\n        string eventType,\n        address from,\n        address to,\n        uint256 price\n    );\n\n    // On bid placed\n    event BidPlaced(\n        address cAddress,\n        uint256 tokenId,\n        address from,\n        uint256 price\n    );\n\n    // On bid canceled\n    event BidCanceled(address cAddress, uint256 tokenId, address from);\n\n    // List NFT on Marketplace\n    function mintNFT(\n        string memory name_,\n        string memory image_,\n        string memory properties_,\n        string memory metadata_,\n        bool forSale_,\n        bool isFixedPrice_,\n        uint256 price_,\n        uint256 royalty_,\n        string memory unlockableString_\n    ) public {\n        require(\n            msg.sender == creator,\n            \"CustomERC721Collection : mintToken -> Not collection owner\"\n        );\n\n        _tokenIds.increment();\n        uint256 tokenId = _tokenIds.current();\n\n        // ERC721 Mint\n        _safeMint(msg.sender, tokenId);\n\n        // ERC721 set Metadata\n        _setTokenURI(tokenId, metadata_);\n\n        // In case of bidding nft transfer is called by owner of nft\n        // But for fixed price nft transfer can be only done by marketplace\n        if (isFixedPrice_) {\n            // ERC721 approve marketplace to manage owner's current token\n            approve(marketPlaceAddress, tokenId);\n        }\n\n        // Set unlockableContent\n        unlockableContent[tokenId] = unlockableString_;\n\n        // Store nft in marketplace\n        nfts[tokenId] = NFT({\n            forSale: forSale_,\n            sellType: isFixedPrice_ ? SellType.FixedPrice : SellType.Bidding,\n            price: price_,\n            royalty: royalty_\n        });\n\n        // Log events to subgraph\n        emit NFTCreated(\n            address(this),\n            tokenId,\n            name_,\n            image_,\n            name(),\n            properties_,\n            creator,\n            metadata_\n        );\n\n        emit NFTEvent(\n            address(this),\n            tokenId,\n            \"Minted\",\n            address(0),\n            msg.sender,\n            0\n        );\n    }\n\n    // Set forSale for Fixed price Nft\n    function setForSale(uint256 tokenId, bool forSale_) public {\n        require(\n            tokenId <= _tokenIds.current(),\n            \"Marketplace : setForSale -> tokenId doesn't correspond to any NFT\"\n        );\n        require(\n            msg.sender == ownerOf(tokenId),\n            \"Marketplace : setForSale -> Not NFT owner\"\n        );\n        require(\n            nfts[tokenId].sellType == SellType.FixedPrice,\n            \"Marketplace : setForSale -> Can list/unlist fixed price nfts only\"\n        );\n\n        nfts[tokenId].forSale = forSale_;\n    }\n\n    // Buy Fixed Price NFT\n    function buyFixedPriceNFT(uint256 tokenId) public payable nonReentrant {\n        require(\n            tokenId <= _tokenIds.current(),\n            \"Marketplace : buyFixedPriceNFT -> tokenId doesn't correspond to any NFT\"\n        );\n\n        NFT memory nft = nfts[tokenId];\n        address nftOwner = ownerOf(tokenId);\n\n        require(\n            nft.sellType == SellType.FixedPrice,\n            \"Marketplace : placeBid -> NFT is listed for bids only\"\n        );\n        require(\n            nft.forSale,\n            \"Marketplace : buyFixedPriceNFT -> NFT is not for sale\"\n        );\n        require(\n            msg.sender != nftOwner,\n            \"Marketplace : buyFixedPriceNFT -> Owner can't buy\"\n        );\n        require(\n            msg.value == nft.price,\n            \"Marketplace : buyFixedPriceNFT -> Please send exact amount as price\"\n        );\n\n        // Tranfer eth to creator as royalty\n        creator.transfer(((nft.price * nft.royalty) / 100));\n\n        // Marketplace gets 1% commission\n        marketPlaceAddress.transfer(nft.price / 100);\n\n        // Tranfer remaining eth to current owner\n        payable(nftOwner).transfer((nft.price * (100 - nft.royalty - 1)) / 100);\n\n        // Transfer nft to msg.sender\n        Marketplace(marketPlaceAddress).marketPlaceTransferFrom(\n            address(this),\n            nftOwner,\n            msg.sender,\n            tokenId\n        );\n\n        // New owner has to approve marketplace to manage his token\n        approve(marketPlaceAddress, tokenId);\n\n        // Unlist item\n        setForSale(tokenId, false);\n\n        // Log event to subgraph\n        emit NFTEvent(\n            address(this),\n            tokenId,\n            \"Sold\",\n            nftOwner,\n            msg.sender,\n            nft.price / 1e12\n        );\n    }\n\n    // Places bid. Recieves eth from user which are held by the contract\n    function placeBid(uint256 tokenId) public payable {\n        require(\n            tokenId <= _tokenIds.current(),\n            \"Marketplace : placeBid -> tokenId doesn't correspond to any NFT\"\n        );\n\n        NFT memory nft = nfts[tokenId];\n\n        require(\n            nft.sellType == SellType.Bidding,\n            \"Marketplace : placeBid -> NFT doesn't allow bidding\"\n        );\n        require(\n            msg.sender != ownerOf(tokenId),\n            \"Marketplace : placeBid -> Seller can't buy\"\n        );\n        require(\n            bids[tokenId][msg.sender] == 0,\n            \"Marketplace : placeBid -> Can't bid twice. Cancel Previous bid\"\n        );\n        require(\n            msg.value >= nft.price,\n            \"Marketplace : placeBid -> Can't bid lower than nft's minimum price\"\n        );\n\n        // Add bid on chain\n        bids[tokenId][msg.sender] = msg.value;\n\n        // Log event to subgraph\n        emit BidPlaced(address(this), tokenId, msg.sender, msg.value / 1e12);\n    }\n\n    // Cancels bid\n    function cancelBid(uint256 tokenId) public {\n        require(\n            tokenId <= _tokenIds.current(),\n            \"Marketplace : cancelBid -> tokenId doesn't correspond to any NFT\"\n        );\n        require(\n            nfts[tokenId].sellType == SellType.Bidding,\n            \"Marketplace : cancelBid -> NFT doesn't allow bidding\"\n        );\n        require(\n            bids[tokenId][msg.sender] != 0,\n            \"Marketplace : cancelBid -> No bid by user\"\n        );\n\n        uint256 bidAmount = bids[tokenId][msg.sender];\n\n        // Remove bid on chain\n        bids[tokenId][msg.sender] = 0;\n\n        // Transfer bidder's eth back\n        payable(msg.sender).transfer(bidAmount);\n\n        // Log event to subgraph\n        emit BidCanceled(address(this), tokenId, msg.sender);\n    }\n\n    // Sell NFT to a bidder\n    function sellBiddingNFT(uint256 tokenId, address to_) public nonReentrant {\n        require(\n            tokenId <= _tokenIds.current(),\n            \"Marketplace : sellBiddingNFT -> tokenId doesn't correspond to any NFT\"\n        );\n\n        NFT memory nft = nfts[tokenId];\n        address nftOwner = ownerOf(tokenId);\n\n        require(\n            msg.sender == nftOwner,\n            \"Marketplace : sellBiddingNFT -> Only owner can sell\"\n        );\n        require(\n            nfts[tokenId].sellType == SellType.Bidding,\n            \"Marketplace : sellBiddingNFT -> NFT doesn't allow bidding\"\n        );\n        require(\n            bids[tokenId][to_] != 0,\n            \"Marketplace : sellBiddingNFT -> No bid by user\"\n        );\n\n        // Tranfer eth to creator as royalty\n        creator.transfer(((bids[tokenId][to_] * nft.royalty) / 100));\n\n        // Marketplace gets 1% commission\n        marketPlaceAddress.transfer(bids[tokenId][to_] / 100);\n\n        // Tranfer remaining eth to current owner\n        payable(nftOwner).transfer(\n            (bids[tokenId][to_] * (100 - nft.royalty - 1)) / 100\n        );\n\n        // Transfer nft to msg.sender\n        safeTransferFrom(msg.sender, to_, tokenId);\n\n        // Log event to subgraph\n        emit NFTEvent(\n            address(this),\n            tokenId,\n            \"Sold\",\n            nftOwner,\n            to_,\n            bids[tokenId][to_] / 1e12\n        );\n\n        emit BidCanceled(address(this), tokenId, to_);\n    }\n\n    // Get unlockable content to owner of nft\n    function getUnlockableContent(uint256 tokenId_)\n        public\n        view\n        returns (string memory)\n    {\n        // require(tokenId_ <= _tokenIds.current(), \"Marketplace : sellBiddingNFT -> tokenId doesn't correspond to any NFT\");\n        // Only owner of token can access secret\n        require(\n            msg.sender == ownerOf(tokenId_),\n            \"CustomERC721Collection : getUnlockableContent -> Not nft owner\"\n        );\n\n        return unlockableContent[tokenId_];\n    }\n\n    // Get NFT Overview\n    function getNFTOverview(uint256 tokenId_)\n        public\n        view\n        returns (\n            address cAddress,\n            uint256 tokenId,\n            address owner,\n            string memory metadataURI,\n            NFT memory\n        )\n    {\n        // require(tokenId_ <= _tokenIds.current(), \"Marketplace : sellBiddingNFT -> tokenId doesn't correspond to any NFT\");\n\n        return (\n            address(this),\n            tokenId_,\n            ownerOf(tokenId_),\n            tokenURI(tokenId_),\n            nfts[tokenId_]\n        );\n    }\n\n    // Modify listing mechanism\n    function modifyListingMechanism(\n        uint256 tokenId,\n        bool setFixPrice,\n        bool forSale,\n        uint256 newPrice\n    ) public // address[] memory bidders\n    {\n        require(\n            tokenId <= _tokenIds.current(),\n            \"Marketplace : sellBiddingNFT -> tokenId doesn't correspond to any NFT\"\n        );\n        require(\n            msg.sender == ownerOf(tokenId),\n            \"Marketplace : modifyListingMechanism -> Only owner can modify\"\n        );\n\n        // For fixed price tokens\n        if (nfts[tokenId].sellType == SellType.FixedPrice) {\n            if (!setFixPrice) {\n                // Convert to bidding and change price\n                nfts[tokenId].sellType = SellType.Bidding;\n                nfts[tokenId].price = newPrice;\n            } else {\n                // Change price and forSale status\n                nfts[tokenId].forSale = forSale;\n                nfts[tokenId].price = newPrice;\n            }\n        }\n        // For bidding tokens\n        // else {\n        //     if(setFixPrice) {\n        //         // Convert to fixed price and change price, forSale\n        //         nfts[tokenId].sellType = SellType.FixedPrice;\n        //         nfts[tokenId].forSale = forSale;\n        //         nfts[tokenId].price = newPrice;\n\n        //         // Approve marketplace to trade this token\n        //         approve(marketPlaceAddress, tokenId);\n\n        //         // Cancel all bids, Return their money, emit events\n        //         for(uint i=0; i<bidders.length; i++) {\n        //             // Transfer bidder's eth back\n        //             payable(bidders[i]).transfer(bids[tokenId][bidders[i]]);\n\n        //             // Remove bid on chain\n        //             bids[tokenId][bidders[i]] = 0;\n\n        //             // Log event to subgraph\n        //             emit BidCanceled(address(this), tokenId, bidders[i]);\n        //         }\n\n        //     } else {\n        //         // Change minimum price\n        //         nfts[tokenId].price = newPrice;\n        //     }\n        // }\n    }\n}\n",
  "sourcePath": "/Users/hrushi/Projects/Crypto/nft-truffle/contracts/CustomERC721Collection.sol",
  "compiler": {
    "name": "solc",
    "version": "0.8.9+commit.e5eed63a.Emscripten.clang"
  },
  "schemaVersion": "3.4.3",
  "updatedAt": "2021-12-06T15:32:48.060Z",
  "devdoc": {
    "kind": "dev",
    "methods": {
      "approve(address,uint256)": {
        "details": "See {IERC721-approve}."
      },
      "balanceOf(address)": {
        "details": "See {IERC721-balanceOf}."
      },
      "getApproved(uint256)": {
        "details": "See {IERC721-getApproved}."
      },
      "isApprovedForAll(address,address)": {
        "details": "See {IERC721-isApprovedForAll}."
      },
      "name()": {
        "details": "See {IERC721Metadata-name}."
      },
      "ownerOf(uint256)": {
        "details": "See {IERC721-ownerOf}."
      },
      "safeTransferFrom(address,address,uint256)": {
        "details": "See {IERC721-safeTransferFrom}."
      },
      "safeTransferFrom(address,address,uint256,bytes)": {
        "details": "See {IERC721-safeTransferFrom}."
      },
      "setApprovalForAll(address,bool)": {
        "details": "See {IERC721-setApprovalForAll}."
      },
      "supportsInterface(bytes4)": {
        "details": "See {IERC165-supportsInterface}."
      },
      "symbol()": {
        "details": "See {IERC721Metadata-symbol}."
      },
      "tokenURI(uint256)": {
        "details": "See {IERC721Metadata-tokenURI}."
      },
      "transferFrom(address,address,uint256)": {
        "details": "See {IERC721-transferFrom}."
      }
    },
    "version": 1
  },
  "userdoc": {
    "kind": "user",
    "methods": {},
    "version": 1
  }
}