{
  "contractName": "CustomCollection",
  "abi": [
    {
      "inputs": [
        {
          "internalType": "string",
          "name": "name_",
          "type": "string"
        },
        {
          "internalType": "string",
          "name": "symbol_",
          "type": "string"
        },
        {
          "internalType": "string",
          "name": "collectionMetadata_",
          "type": "string"
        },
        {
          "internalType": "address",
          "name": "creator_",
          "type": "address"
        }
      ],
      "stateMutability": "nonpayable",
      "type": "constructor"
    },
    {
      "anonymous": false,
      "inputs": [
        {
          "indexed": true,
          "internalType": "address",
          "name": "owner",
          "type": "address"
        },
        {
          "indexed": true,
          "internalType": "address",
          "name": "approved",
          "type": "address"
        },
        {
          "indexed": true,
          "internalType": "uint256",
          "name": "tokenId",
          "type": "uint256"
        }
      ],
      "name": "Approval",
      "type": "event"
    },
    {
      "anonymous": false,
      "inputs": [
        {
          "indexed": true,
          "internalType": "address",
          "name": "owner",
          "type": "address"
        },
        {
          "indexed": true,
          "internalType": "address",
          "name": "operator",
          "type": "address"
        },
        {
          "indexed": false,
          "internalType": "bool",
          "name": "approved",
          "type": "bool"
        }
      ],
      "name": "ApprovalForAll",
      "type": "event"
    },
    {
      "anonymous": false,
      "inputs": [
        {
          "indexed": false,
          "internalType": "address",
          "name": "cAddress",
          "type": "address"
        },
        {
          "indexed": false,
          "internalType": "uint256",
          "name": "tokenId",
          "type": "uint256"
        },
        {
          "indexed": false,
          "internalType": "address",
          "name": "from",
          "type": "address"
        }
      ],
      "name": "BidCanceled",
      "type": "event"
    },
    {
      "anonymous": false,
      "inputs": [
        {
          "indexed": false,
          "internalType": "address",
          "name": "cAddress",
          "type": "address"
        },
        {
          "indexed": false,
          "internalType": "uint256",
          "name": "tokenId",
          "type": "uint256"
        },
        {
          "indexed": false,
          "internalType": "address",
          "name": "from",
          "type": "address"
        },
        {
          "indexed": false,
          "internalType": "uint256",
          "name": "price",
          "type": "uint256"
        }
      ],
      "name": "BidPlaced",
      "type": "event"
    },
    {
      "anonymous": false,
      "inputs": [
        {
          "indexed": false,
          "internalType": "address",
          "name": "cAddress",
          "type": "address"
        },
        {
          "indexed": false,
          "internalType": "uint256",
          "name": "tokenId",
          "type": "uint256"
        },
        {
          "indexed": false,
          "internalType": "string",
          "name": "name",
          "type": "string"
        },
        {
          "indexed": false,
          "internalType": "string",
          "name": "image",
          "type": "string"
        },
        {
          "indexed": false,
          "internalType": "string",
          "name": "properties",
          "type": "string"
        },
        {
          "indexed": false,
          "internalType": "string",
          "name": "metadata",
          "type": "string"
        }
      ],
      "name": "NFTCreated",
      "type": "event"
    },
    {
      "anonymous": false,
      "inputs": [
        {
          "indexed": false,
          "internalType": "address",
          "name": "cAddress",
          "type": "address"
        },
        {
          "indexed": false,
          "internalType": "uint256",
          "name": "tokenId",
          "type": "uint256"
        },
        {
          "indexed": false,
          "internalType": "string",
          "name": "eventType",
          "type": "string"
        },
        {
          "indexed": false,
          "internalType": "address",
          "name": "from",
          "type": "address"
        },
        {
          "indexed": false,
          "internalType": "address",
          "name": "to",
          "type": "address"
        },
        {
          "indexed": false,
          "internalType": "uint256",
          "name": "price",
          "type": "uint256"
        }
      ],
      "name": "NFTEvent",
      "type": "event"
    },
    {
      "anonymous": false,
      "inputs": [
        {
          "indexed": true,
          "internalType": "address",
          "name": "from",
          "type": "address"
        },
        {
          "indexed": true,
          "internalType": "address",
          "name": "to",
          "type": "address"
        },
        {
          "indexed": true,
          "internalType": "uint256",
          "name": "tokenId",
          "type": "uint256"
        }
      ],
      "name": "Transfer",
      "type": "event"
    },
    {
      "inputs": [
        {
          "internalType": "address",
          "name": "to",
          "type": "address"
        },
        {
          "internalType": "uint256",
          "name": "tokenId",
          "type": "uint256"
        }
      ],
      "name": "approve",
      "outputs": [],
      "stateMutability": "nonpayable",
      "type": "function"
    },
    {
      "inputs": [
        {
          "internalType": "address",
          "name": "owner",
          "type": "address"
        }
      ],
      "name": "balanceOf",
      "outputs": [
        {
          "internalType": "uint256",
          "name": "",
          "type": "uint256"
        }
      ],
      "stateMutability": "view",
      "type": "function"
    },
    {
      "inputs": [],
      "name": "creator",
      "outputs": [
        {
          "internalType": "address payable",
          "name": "",
          "type": "address"
        }
      ],
      "stateMutability": "view",
      "type": "function"
    },
    {
      "inputs": [
        {
          "internalType": "uint256",
          "name": "tokenId",
          "type": "uint256"
        }
      ],
      "name": "getApproved",
      "outputs": [
        {
          "internalType": "address",
          "name": "",
          "type": "address"
        }
      ],
      "stateMutability": "view",
      "type": "function"
    },
    {
      "inputs": [
        {
          "internalType": "address",
          "name": "owner",
          "type": "address"
        },
        {
          "internalType": "address",
          "name": "operator",
          "type": "address"
        }
      ],
      "name": "isApprovedForAll",
      "outputs": [
        {
          "internalType": "bool",
          "name": "",
          "type": "bool"
        }
      ],
      "stateMutability": "view",
      "type": "function"
    },
    {
      "inputs": [],
      "name": "name",
      "outputs": [
        {
          "internalType": "string",
          "name": "",
          "type": "string"
        }
      ],
      "stateMutability": "view",
      "type": "function"
    },
    {
      "inputs": [
        {
          "internalType": "uint256",
          "name": "",
          "type": "uint256"
        }
      ],
      "name": "nfts",
      "outputs": [
        {
          "internalType": "bool",
          "name": "forSale",
          "type": "bool"
        },
        {
          "internalType": "enum SellType",
          "name": "sellType",
          "type": "uint8"
        },
        {
          "internalType": "uint256",
          "name": "price",
          "type": "uint256"
        },
        {
          "internalType": "uint256",
          "name": "royalty",
          "type": "uint256"
        }
      ],
      "stateMutability": "view",
      "type": "function"
    },
    {
      "inputs": [
        {
          "internalType": "uint256",
          "name": "tokenId",
          "type": "uint256"
        }
      ],
      "name": "ownerOf",
      "outputs": [
        {
          "internalType": "address",
          "name": "",
          "type": "address"
        }
      ],
      "stateMutability": "view",
      "type": "function"
    },
    {
      "inputs": [
        {
          "internalType": "address",
          "name": "from",
          "type": "address"
        },
        {
          "internalType": "address",
          "name": "to",
          "type": "address"
        },
        {
          "internalType": "uint256",
          "name": "tokenId",
          "type": "uint256"
        }
      ],
      "name": "safeTransferFrom",
      "outputs": [],
      "stateMutability": "nonpayable",
      "type": "function"
    },
    {
      "inputs": [
        {
          "internalType": "address",
          "name": "from",
          "type": "address"
        },
        {
          "internalType": "address",
          "name": "to",
          "type": "address"
        },
        {
          "internalType": "uint256",
          "name": "tokenId",
          "type": "uint256"
        },
        {
          "internalType": "bytes",
          "name": "_data",
          "type": "bytes"
        }
      ],
      "name": "safeTransferFrom",
      "outputs": [],
      "stateMutability": "nonpayable",
      "type": "function"
    },
    {
      "inputs": [
        {
          "internalType": "address",
          "name": "operator",
          "type": "address"
        },
        {
          "internalType": "bool",
          "name": "approved",
          "type": "bool"
        }
      ],
      "name": "setApprovalForAll",
      "outputs": [],
      "stateMutability": "nonpayable",
      "type": "function"
    },
    {
      "inputs": [
        {
          "internalType": "bytes4",
          "name": "interfaceId",
          "type": "bytes4"
        }
      ],
      "name": "supportsInterface",
      "outputs": [
        {
          "internalType": "bool",
          "name": "",
          "type": "bool"
        }
      ],
      "stateMutability": "view",
      "type": "function"
    },
    {
      "inputs": [],
      "name": "symbol",
      "outputs": [
        {
          "internalType": "string",
          "name": "",
          "type": "string"
        }
      ],
      "stateMutability": "view",
      "type": "function"
    },
    {
      "inputs": [
        {
          "internalType": "uint256",
          "name": "tokenId",
          "type": "uint256"
        }
      ],
      "name": "tokenURI",
      "outputs": [
        {
          "internalType": "string",
          "name": "",
          "type": "string"
        }
      ],
      "stateMutability": "view",
      "type": "function"
    },
    {
      "inputs": [
        {
          "internalType": "address",
          "name": "from",
          "type": "address"
        },
        {
          "internalType": "address",
          "name": "to",
          "type": "address"
        },
        {
          "internalType": "uint256",
          "name": "tokenId",
          "type": "uint256"
        }
      ],
      "name": "transferFrom",
      "outputs": [],
      "stateMutability": "nonpayable",
      "type": "function"
    },
    {
      "inputs": [
        {
          "internalType": "string",
          "name": "name_",
          "type": "string"
        },
        {
          "internalType": "string",
          "name": "image_",
          "type": "string"
        },
        {
          "internalType": "string",
          "name": "properties_",
          "type": "string"
        },
        {
          "internalType": "string",
          "name": "metadata_",
          "type": "string"
        },
        {
          "internalType": "bool",
          "name": "forSale_",
          "type": "bool"
        },
        {
          "internalType": "bool",
          "name": "isFixedPrice_",
          "type": "bool"
        },
        {
          "internalType": "uint256",
          "name": "price_",
          "type": "uint256"
        },
        {
          "internalType": "uint256",
          "name": "royalty_",
          "type": "uint256"
        },
        {
          "internalType": "string",
          "name": "unlockableString_",
          "type": "string"
        }
      ],
      "name": "mintNFT",
      "outputs": [],
      "stateMutability": "nonpayable",
      "type": "function"
    },
    {
      "inputs": [
        {
          "internalType": "uint256",
          "name": "tokenId",
          "type": "uint256"
        }
      ],
      "name": "buyFixedPriceNFT",
      "outputs": [],
      "stateMutability": "payable",
      "type": "function"
    },
    {
      "inputs": [
        {
          "internalType": "uint256",
          "name": "tokenId",
          "type": "uint256"
        }
      ],
      "name": "placeBid",
      "outputs": [],
      "stateMutability": "payable",
      "type": "function"
    },
    {
      "inputs": [
        {
          "internalType": "uint256",
          "name": "tokenId",
          "type": "uint256"
        }
      ],
      "name": "cancelBid",
      "outputs": [],
      "stateMutability": "nonpayable",
      "type": "function"
    },
    {
      "inputs": [
        {
          "internalType": "uint256",
          "name": "tokenId",
          "type": "uint256"
        },
        {
          "internalType": "address",
          "name": "to_",
          "type": "address"
        }
      ],
      "name": "sellBiddingNFT",
      "outputs": [],
      "stateMutability": "nonpayable",
      "type": "function"
    },
    {
      "inputs": [
        {
          "internalType": "uint256",
          "name": "tokenId",
          "type": "uint256"
        }
      ],
      "name": "getUnlockableContent",
      "outputs": [
        {
          "internalType": "string",
          "name": "",
          "type": "string"
        }
      ],
      "stateMutability": "view",
      "type": "function"
    },
    {
      "inputs": [
        {
          "internalType": "uint256",
          "name": "tokenId",
          "type": "uint256"
        },
        {
          "internalType": "bool",
          "name": "setFixPrice",
          "type": "bool"
        },
        {
          "internalType": "bool",
          "name": "forSale",
          "type": "bool"
        },
        {
          "internalType": "uint256",
          "name": "newPrice",
          "type": "uint256"
        }
      ],
      "name": "modifyListingMechanism",
      "outputs": [],
      "stateMutability": "nonpayable",
      "type": "function"
    }
  ],
  "bytecode": "0x60806040523480156200001157600080fd5b506040516200578c3803806200578c8339818101604052810190620000379190620003cc565b838360016000819055508160019080519060200190620000599291906200011a565b508060029080519060200190620000729291906200011a565b50505080600960006101000a81548173ffffffffffffffffffffffffffffffffffffffff021916908373ffffffffffffffffffffffffffffffffffffffff16021790555033600b60006101000a81548173ffffffffffffffffffffffffffffffffffffffff021916908373ffffffffffffffffffffffffffffffffffffffff16021790555081600a90805190602001906200010f9291906200011a565b505050505062000500565b8280546200012890620004ca565b90600052602060002090601f0160209004810192826200014c576000855562000198565b82601f106200016757805160ff191683800117855562000198565b8280016001018555821562000198579182015b82811115620001975782518255916020019190600101906200017a565b5b509050620001a79190620001ab565b5090565b5b80821115620001c6576000816000905550600101620001ac565b5090565b6000604051905090565b600080fd5b600080fd5b600080fd5b600080fd5b6000601f19601f8301169050919050565b7f4e487b7100000000000000000000000000000000000000000000000000000000600052604160045260246000fd5b6200023382620001e8565b810181811067ffffffffffffffff82111715620002555762000254620001f9565b5b80604052505050565b60006200026a620001ca565b905062000278828262000228565b919050565b600067ffffffffffffffff8211156200029b576200029a620001f9565b5b620002a682620001e8565b9050602081019050919050565b60005b83811015620002d3578082015181840152602081019050620002b6565b83811115620002e3576000848401525b50505050565b600062000300620002fa846200027d565b6200025e565b9050828152602081018484840111156200031f576200031e620001e3565b5b6200032c848285620002b3565b509392505050565b600082601f8301126200034c576200034b620001de565b5b81516200035e848260208601620002e9565b91505092915050565b600073ffffffffffffffffffffffffffffffffffffffff82169050919050565b6000620003948262000367565b9050919050565b620003a68162000387565b8114620003b257600080fd5b50565b600081519050620003c6816200039b565b92915050565b60008060008060808587031215620003e957620003e8620001d4565b5b600085015167ffffffffffffffff8111156200040a5762000409620001d9565b5b620004188782880162000334565b945050602085015167ffffffffffffffff8111156200043c576200043b620001d9565b5b6200044a8782880162000334565b935050604085015167ffffffffffffffff8111156200046e576200046d620001d9565b5b6200047c8782880162000334565b92505060606200048f87828801620003b5565b91505092959194509250565b7f4e487b7100000000000000000000000000000000000000000000000000000000600052602260045260246000fd5b60006002820490506001821680620004e357607f821691505b60208210811415620004fa57620004f96200049b565b5b50919050565b61527c80620005106000396000f3fe6080604052600436106101355760003560e01c806370a08231116100ab578063af345ec61161006f578063af345ec61461041d578063afc7fbd514610446578063b88d4fde1461046f578063c87b56dd14610498578063e985e9c5146104d5578063fe4867121461051257610135565b806370a082311461034757806395d89b41146103845780639703ef35146103af5780639979ef45146103d8578063a22cb465146103f457610135565b806323b872dd116100fd57806323b872dd14610233578063265aa6211461025c5780632af6c4481461029c57806342842e0e146102b85780636352211e146102e15780636fe042941461031e57610135565b806301ffc9a71461013a57806302d05d3f1461017757806306fdde03146101a2578063081812fc146101cd578063095ea7b31461020a575b600080fd5b34801561014657600080fd5b50610161600480360381019061015c919061324e565b61054f565b60405161016e9190613296565b60405180910390f35b34801561018357600080fd5b5061018c610631565b60405161019991906132f2565b60405180910390f35b3480156101ae57600080fd5b506101b7610657565b6040516101c491906133a6565b60405180910390f35b3480156101d957600080fd5b506101f460048036038101906101ef91906133fe565b6106e9565b604051610201919061344c565b60405180910390f35b34801561021657600080fd5b50610231600480360381019061022c9190613493565b61076e565b005b34801561023f57600080fd5b5061025a600480360381019061025591906134d3565b610886565b005b34801561026857600080fd5b50610283600480360381019061027e91906133fe565b6108e6565b60405161029394939291906135ac565b60405180910390f35b6102b660048036038101906102b191906133fe565b610930565b005b3480156102c457600080fd5b506102df60048036038101906102da91906134d3565b610eaa565b005b3480156102ed57600080fd5b50610308600480360381019061030391906133fe565b610eca565b604051610315919061344c565b60405180910390f35b34801561032a57600080fd5b506103456004803603810190610340919061361d565b610f7c565b005b34801561035357600080fd5b5061036e60048036038101906103699190613684565b611147565b60405161037b91906136b1565b60405180910390f35b34801561039057600080fd5b506103996111ff565b6040516103a691906133a6565b60405180910390f35b3480156103bb57600080fd5b506103d660048036038101906103d191906133fe565b611291565b005b6103f260048036038101906103ed91906133fe565b61152f565b005b34801561040057600080fd5b5061041b600480360381019061041691906136cc565b611812565b005b34801561042957600080fd5b50610444600480360381019061043f919061370c565b611828565b005b34801561045257600080fd5b5061046d60048036038101906104689190613881565b611de3565b005b34801561047b57600080fd5b5061049660048036038101906104919190613a78565b612045565b005b3480156104a457600080fd5b506104bf60048036038101906104ba91906133fe565b6120a7565b6040516104cc91906133a6565b60405180910390f35b3480156104e157600080fd5b506104fc60048036038101906104f79190613afb565b6121f9565b6040516105099190613296565b60405180910390f35b34801561051e57600080fd5b50610539600480360381019061053491906133fe565b61228d565b60405161054691906133a6565b60405180910390f35b60007f80ac58cd000000000000000000000000000000000000000000000000000000007bffffffffffffffffffffffffffffffffffffffffffffffffffffffff1916827bffffffffffffffffffffffffffffffffffffffffffffffffffffffff1916148061061a57507f5b5e139f000000000000000000000000000000000000000000000000000000007bffffffffffffffffffffffffffffffffffffffffffffffffffffffff1916827bffffffffffffffffffffffffffffffffffffffffffffffffffffffff1916145b8061062a5750610629826123f8565b5b9050919050565b600960009054906101000a900473ffffffffffffffffffffffffffffffffffffffff1681565b60606001805461066690613b6a565b80601f016020809104026020016040519081016040528092919081815260200182805461069290613b6a565b80156106df5780601f106106b4576101008083540402835291602001916106df565b820191906000526020600020905b8154815290600101906020018083116106c257829003601f168201915b5050505050905090565b60006106f482612462565b610733576040517f08c379a000000000000000000000000000000000000000000000000000000000815260040161072a90613c0e565b60405180910390fd5b6005600083815260200190815260200160002060009054906101000a900473ffffffffffffffffffffffffffffffffffffffff169050919050565b600061077982610eca565b90508073ffffffffffffffffffffffffffffffffffffffff168373ffffffffffffffffffffffffffffffffffffffff1614156107ea576040517f08c379a00000000000000000000000000000000000000000000000000000000081526004016107e190613ca0565b60405180910390fd5b8073ffffffffffffffffffffffffffffffffffffffff166108096124ce565b73ffffffffffffffffffffffffffffffffffffffff1614806108385750610837816108326124ce565b6121f9565b5b610877576040517f08c379a000000000000000000000000000000000000000000000000000000000815260040161086e90613d32565b60405180910390fd5b61088183836124d6565b505050565b6108976108916124ce565b8261258f565b6108d6576040517f08c379a00000000000000000000000000000000000000000000000000000000081526004016108cd90613dc4565b60405180910390fd5b6108e183838361266d565b505050565b600c6020528060005260406000206000915090508060000160009054906101000a900460ff16908060000160019054906101000a900460ff16908060010154908060020154905084565b60026000541415610976576040517f08c379a000000000000000000000000000000000000000000000000000000000815260040161096d90613e30565b60405180910390fd5b60026000819055508061098960086128c9565b8111156109cb576040517f08c379a00000000000000000000000000000000000000000000000000000000081526004016109c290613ec2565b60405180910390fd5b816109d581610eca565b73ffffffffffffffffffffffffffffffffffffffff163373ffffffffffffffffffffffffffffffffffffffff161415610a43576040517f08c379a0000000000000000000000000000000000000000000000000000000008152600401610a3a90613f54565b60405180910390fd5b6000600c60008581526020019081526020016000206040518060800160405290816000820160009054906101000a900460ff161515151581526020016000820160019054906101000a900460ff166001811115610aa357610aa2613526565b5b6001811115610ab557610ab4613526565b5b815260200160018201548152602001600282015481525050905060006001811115610ae357610ae2613526565b5b81602001516001811115610afa57610af9613526565b5b14610b3a576040517f08c379a0000000000000000000000000000000000000000000000000000000008152600401610b3190613fe6565b60405180910390fd5b8060000151610b7e576040517f08c379a0000000000000000000000000000000000000000000000000000000008152600401610b7590614078565b60405180910390fd5b80604001513414610bc4576040517f08c379a0000000000000000000000000000000000000000000000000000000008152600401610bbb90614130565b60405180910390fd5b600960009054906101000a900473ffffffffffffffffffffffffffffffffffffffff1673ffffffffffffffffffffffffffffffffffffffff166108fc606483606001518460400151610c16919061417f565b610c209190614208565b9081150290604051600060405180830381858888f19350505050158015610c4b573d6000803e3d6000fd5b50600b60009054906101000a900473ffffffffffffffffffffffffffffffffffffffff1673ffffffffffffffffffffffffffffffffffffffff166108fc60648360400151610c999190614208565b9081150290604051600060405180830381858888f19350505050158015610cc4573d6000803e3d6000fd5b50610cce84610eca565b73ffffffffffffffffffffffffffffffffffffffff166108fc6064600184606001516064610cfc9190614239565b610d069190614239565b8460400151610d15919061417f565b610d1f9190614208565b9081150290604051600060405180830381858888f19350505050158015610d4a573d6000803e3d6000fd5b50600b60009054906101000a900473ffffffffffffffffffffffffffffffffffffffff1673ffffffffffffffffffffffffffffffffffffffff1663c63d15fd30610d9387610eca565b33886040518563ffffffff1660e01b8152600401610db4949392919061426d565b600060405180830381600087803b158015610dce57600080fd5b505af1158015610de2573d6000803e3d6000fd5b50505050610e12600b60009054906101000a900473ffffffffffffffffffffffffffffffffffffffff168561076e565b6000600c600086815260200190815260200160002060000160006101000a81548160ff0219169083151502179055507fd150b62f2313c33b378415934acdff9ca2554598f9325710306b1c3e274b741b3085610e6d87610eca565b3364e8d4a510008660400151610e839190614208565b604051610e949594939291906142fe565b60405180910390a1505050600160008190555050565b610ec583838360405180602001604052806000815250612045565b505050565b6000806003600084815260200190815260200160002060009054906101000a900473ffffffffffffffffffffffffffffffffffffffff169050600073ffffffffffffffffffffffffffffffffffffffff168173ffffffffffffffffffffffffffffffffffffffff161415610f73576040517f08c379a0000000000000000000000000000000000000000000000000000000008152600401610f6a906143d6565b60405180910390fd5b80915050919050565b83610f8760086128c9565b811115610fc9576040517f08c379a0000000000000000000000000000000000000000000000000000000008152600401610fc090613ec2565b60405180910390fd5b84610fd381610eca565b73ffffffffffffffffffffffffffffffffffffffff163373ffffffffffffffffffffffffffffffffffffffff1614611040576040517f08c379a000000000000000000000000000000000000000000000000000000000815260040161103790614468565b60405180910390fd5b6000600181111561105457611053613526565b5b600c600088815260200190815260200160002060000160019054906101000a900460ff16600181111561108a57611089613526565b5b141561113f57846110f4576001600c600088815260200190815260200160002060000160016101000a81548160ff021916908360018111156110cf576110ce613526565b5b021790555082600c60008881526020019081526020016000206001018190555061113e565b83600c600088815260200190815260200160002060000160006101000a81548160ff02191690831515021790555082600c6000888152602001908152602001600020600101819055505b5b505050505050565b60008073ffffffffffffffffffffffffffffffffffffffff168273ffffffffffffffffffffffffffffffffffffffff1614156111b8576040517f08c379a00000000000000000000000000000000000000000000000000000000081526004016111af906144fa565b60405180910390fd5b600460008373ffffffffffffffffffffffffffffffffffffffff1673ffffffffffffffffffffffffffffffffffffffff168152602001908152602001600020549050919050565b60606002805461120e90613b6a565b80601f016020809104026020016040519081016040528092919081815260200182805461123a90613b6a565b80156112875780601f1061125c57610100808354040283529160200191611287565b820191906000526020600020905b81548152906001019060200180831161126a57829003601f168201915b5050505050905090565b8061129c60086128c9565b8111156112de576040517f08c379a00000000000000000000000000000000000000000000000000000000081526004016112d590613ec2565b60405180910390fd5b816001808111156112f2576112f1613526565b5b600c600083815260200190815260200160002060000160019054906101000a900460ff16600181111561132857611327613526565b5b14611368576040517f08c379a000000000000000000000000000000000000000000000000000000000815260040161135f9061458c565b60405180910390fd5b6000600d600085815260200190815260200160002060003373ffffffffffffffffffffffffffffffffffffffff1673ffffffffffffffffffffffffffffffffffffffff1681526020019081526020016000205414156113fc576040517f08c379a00000000000000000000000000000000000000000000000000000000081526004016113f39061461e565b60405180910390fd5b6000600d600085815260200190815260200160002060003373ffffffffffffffffffffffffffffffffffffffff1673ffffffffffffffffffffffffffffffffffffffff1681526020019081526020016000205490506000600d600086815260200190815260200160002060003373ffffffffffffffffffffffffffffffffffffffff1673ffffffffffffffffffffffffffffffffffffffff168152602001908152602001600020819055503373ffffffffffffffffffffffffffffffffffffffff166108fc829081150290604051600060405180830381858888f193505050501580156114ed573d6000803e3d6000fd5b507fb4b7bfeef342bc38bed50c4af23900b8bfe1ef97943592a983c896816c109d9d3085336040516115219392919061463e565b60405180910390a150505050565b8061153a60086128c9565b81111561157c576040517f08c379a000000000000000000000000000000000000000000000000000000000815260040161157390613ec2565b60405180910390fd5b8161158681610eca565b73ffffffffffffffffffffffffffffffffffffffff163373ffffffffffffffffffffffffffffffffffffffff1614156115f4576040517f08c379a00000000000000000000000000000000000000000000000000000000081526004016115eb90613f54565b60405180910390fd5b8260018081111561160857611607613526565b5b600c600083815260200190815260200160002060000160019054906101000a900460ff16600181111561163e5761163d613526565b5b1461167e576040517f08c379a00000000000000000000000000000000000000000000000000000000081526004016116759061458c565b60405180910390fd5b6000600d600086815260200190815260200160002060003373ffffffffffffffffffffffffffffffffffffffff1673ffffffffffffffffffffffffffffffffffffffff1681526020019081526020016000205414611711576040517f08c379a00000000000000000000000000000000000000000000000000000000081526004016117089061470d565b60405180910390fd5b600c60008581526020019081526020016000206001015434101561176a576040517f08c379a0000000000000000000000000000000000000000000000000000000008152600401611761906147c5565b60405180910390fd5b34600d600086815260200190815260200160002060003373ffffffffffffffffffffffffffffffffffffffff1673ffffffffffffffffffffffffffffffffffffffff168152602001908152602001600020819055507f0158f5674dc243762459b88cfc91b10d2d1ef9d40821cca978c2b680aa44468230853364e8d4a51000346117f49190614208565b60405161180494939291906147e5565b60405180910390a150505050565b61182461181d6124ce565b83836128d7565b5050565b6002600054141561186e576040517f08c379a000000000000000000000000000000000000000000000000000000000815260040161186590613e30565b60405180910390fd5b60026000819055508161188160086128c9565b8111156118c3576040517f08c379a00000000000000000000000000000000000000000000000000000000081526004016118ba90613ec2565b60405180910390fd5b826118cd81610eca565b73ffffffffffffffffffffffffffffffffffffffff163373ffffffffffffffffffffffffffffffffffffffff161461193a576040517f08c379a000000000000000000000000000000000000000000000000000000000815260040161193190614468565b60405180910390fd5b8360018081111561194e5761194d613526565b5b600c600083815260200190815260200160002060000160019054906101000a900460ff16600181111561198457611983613526565b5b146119c4576040517f08c379a00000000000000000000000000000000000000000000000000000000081526004016119bb9061458c565b60405180910390fd5b6000600d600087815260200190815260200160002060008673ffffffffffffffffffffffffffffffffffffffff1673ffffffffffffffffffffffffffffffffffffffff168152602001908152602001600020541415611a58576040517f08c379a0000000000000000000000000000000000000000000000000000000008152600401611a4f9061489c565b60405180910390fd5b600960009054906101000a900473ffffffffffffffffffffffffffffffffffffffff1673ffffffffffffffffffffffffffffffffffffffff166108fc6064600c600089815260200190815260200160002060020154600d60008a815260200190815260200160002060008973ffffffffffffffffffffffffffffffffffffffff1673ffffffffffffffffffffffffffffffffffffffff16815260200190815260200160002054611b08919061417f565b611b129190614208565b9081150290604051600060405180830381858888f19350505050158015611b3d573d6000803e3d6000fd5b50600b60009054906101000a900473ffffffffffffffffffffffffffffffffffffffff1673ffffffffffffffffffffffffffffffffffffffff166108fc6064600d600089815260200190815260200160002060008873ffffffffffffffffffffffffffffffffffffffff1673ffffffffffffffffffffffffffffffffffffffff16815260200190815260200160002054611bd79190614208565b9081150290604051600060405180830381858888f19350505050158015611c02573d6000803e3d6000fd5b50611c0c85610eca565b73ffffffffffffffffffffffffffffffffffffffff166108fc60646001600c60008a8152602001908152602001600020600201546064611c4c9190614239565b611c569190614239565b600d60008a815260200190815260200160002060008973ffffffffffffffffffffffffffffffffffffffff1673ffffffffffffffffffffffffffffffffffffffff16815260200190815260200160002054611cb1919061417f565b611cbb9190614208565b9081150290604051600060405180830381858888f19350505050158015611ce6573d6000803e3d6000fd5b50611cf2338587610eaa565b7fd150b62f2313c33b378415934acdff9ca2554598f9325710306b1c3e274b741b3086611d1e88610eca565b8764e8d4a51000600d60008c815260200190815260200160002060008b73ffffffffffffffffffffffffffffffffffffffff1673ffffffffffffffffffffffffffffffffffffffff16815260200190815260200160002054611d809190614208565b604051611d919594939291906142fe565b60405180910390a17fb4b7bfeef342bc38bed50c4af23900b8bfe1ef97943592a983c896816c109d9d308686604051611dcc9392919061463e565b60405180910390a150505060016000819055505050565b600960009054906101000a900473ffffffffffffffffffffffffffffffffffffffff1673ffffffffffffffffffffffffffffffffffffffff163373ffffffffffffffffffffffffffffffffffffffff1614611e73576040517f08c379a0000000000000000000000000000000000000000000000000000000008152600401611e6a9061492e565b60405180910390fd5b611e7d6008612a44565b6000611e8960086128c9565b9050611e953382612a5a565b611e9f8188612a78565b8415611ed257611ed1600b60009054906101000a900473ffffffffffffffffffffffffffffffffffffffff168261076e565b5b81600e60008381526020019081526020016000209080519060200190611ef992919061313f565b506040518060800160405280871515815260200186611f19576001611f1c565b60005b6001811115611f2e57611f2d613526565b5b815260200185815260200184815250600c600083815260200190815260200160002060008201518160000160006101000a81548160ff02191690831515021790555060208201518160000160016101000a81548160ff02191690836001811115611f9b57611f9a613526565b5b021790555060408201518160010155606082015181600201559050507f88ababcbfaf84afef06ff7e208affbb3e07eee4832c81797c7ab029bb9212cb130828c8c8c8c604051611ff09695949392919061494e565b60405180910390a17fd150b62f2313c33b378415934acdff9ca2554598f9325710306b1c3e274b741b30826000336000604051612031959493929190614a5c565b60405180910390a150505050505050505050565b6120566120506124ce565b8361258f565b612095576040517f08c379a000000000000000000000000000000000000000000000000000000000815260040161208c90613dc4565b60405180910390fd5b6120a184848484612aec565b50505050565b60606120b282612462565b6120f1576040517f08c379a00000000000000000000000000000000000000000000000000000000081526004016120e890614b34565b60405180910390fd5b600060076000848152602001908152602001600020805461211190613b6a565b80601f016020809104026020016040519081016040528092919081815260200182805461213d90613b6a565b801561218a5780601f1061215f5761010080835404028352916020019161218a565b820191906000526020600020905b81548152906001019060200180831161216d57829003601f168201915b50505050509050600061219b612b48565b90506000815114156121b15781925050506121f4565b6000825111156121e65780826040516020016121ce929190614b90565b604051602081830303815290604052925050506121f4565b6121ef84612b5f565b925050505b919050565b6000600660008473ffffffffffffffffffffffffffffffffffffffff1673ffffffffffffffffffffffffffffffffffffffff16815260200190815260200160002060008373ffffffffffffffffffffffffffffffffffffffff1673ffffffffffffffffffffffffffffffffffffffff16815260200190815260200160002060009054906101000a900460ff16905092915050565b60608161229a60086128c9565b8111156122dc576040517f08c379a00000000000000000000000000000000000000000000000000000000081526004016122d390613ec2565b60405180910390fd5b826122e681610eca565b73ffffffffffffffffffffffffffffffffffffffff163373ffffffffffffffffffffffffffffffffffffffff1614612353576040517f08c379a000000000000000000000000000000000000000000000000000000000815260040161234a90614468565b60405180910390fd5b600e6000858152602001908152602001600020805461237190613b6a565b80601f016020809104026020016040519081016040528092919081815260200182805461239d90613b6a565b80156123ea5780601f106123bf576101008083540402835291602001916123ea565b820191906000526020600020905b8154815290600101906020018083116123cd57829003601f168201915b505050505092505050919050565b60007f01ffc9a7000000000000000000000000000000000000000000000000000000007bffffffffffffffffffffffffffffffffffffffffffffffffffffffff1916827bffffffffffffffffffffffffffffffffffffffffffffffffffffffff1916149050919050565b60008073ffffffffffffffffffffffffffffffffffffffff166003600084815260200190815260200160002060009054906101000a900473ffffffffffffffffffffffffffffffffffffffff1673ffffffffffffffffffffffffffffffffffffffff1614159050919050565b600033905090565b816005600083815260200190815260200160002060006101000a81548173ffffffffffffffffffffffffffffffffffffffff021916908373ffffffffffffffffffffffffffffffffffffffff160217905550808273ffffffffffffffffffffffffffffffffffffffff1661254983610eca565b73ffffffffffffffffffffffffffffffffffffffff167f8c5be1e5ebec7d5bd14f71427d1e84f3dd0314c0f7b2291e5b200ac8c7c3b92560405160405180910390a45050565b600061259a82612462565b6125d9576040517f08c379a00000000000000000000000000000000000000000000000000000000081526004016125d090614c26565b60405180910390fd5b60006125e483610eca565b90508073ffffffffffffffffffffffffffffffffffffffff168473ffffffffffffffffffffffffffffffffffffffff16148061265357508373ffffffffffffffffffffffffffffffffffffffff1661263b846106e9565b73ffffffffffffffffffffffffffffffffffffffff16145b80612664575061266381856121f9565b5b91505092915050565b8273ffffffffffffffffffffffffffffffffffffffff1661268d82610eca565b73ffffffffffffffffffffffffffffffffffffffff16146126e3576040517f08c379a00000000000000000000000000000000000000000000000000000000081526004016126da90614cb8565b60405180910390fd5b600073ffffffffffffffffffffffffffffffffffffffff168273ffffffffffffffffffffffffffffffffffffffff161415612753576040517f08c379a000000000000000000000000000000000000000000000000000000000815260040161274a90614d4a565b60405180910390fd5b61275e838383612c06565b6127696000826124d6565b6001600460008573ffffffffffffffffffffffffffffffffffffffff1673ffffffffffffffffffffffffffffffffffffffff16815260200190815260200160002060008282546127b99190614239565b925050819055506001600460008473ffffffffffffffffffffffffffffffffffffffff1673ffffffffffffffffffffffffffffffffffffffff16815260200190815260200160002060008282546128109190614d6a565b92505081905550816003600083815260200190815260200160002060006101000a81548173ffffffffffffffffffffffffffffffffffffffff021916908373ffffffffffffffffffffffffffffffffffffffff160217905550808273ffffffffffffffffffffffffffffffffffffffff168473ffffffffffffffffffffffffffffffffffffffff167fddf252ad1be2c89b69c2b068fc378daa952ba7f163c4a11628f55a4df523b3ef60405160405180910390a4505050565b600081600001549050919050565b8173ffffffffffffffffffffffffffffffffffffffff168373ffffffffffffffffffffffffffffffffffffffff161415612946576040517f08c379a000000000000000000000000000000000000000000000000000000000815260040161293d90614e0c565b60405180910390fd5b80600660008573ffffffffffffffffffffffffffffffffffffffff1673ffffffffffffffffffffffffffffffffffffffff16815260200190815260200160002060008473ffffffffffffffffffffffffffffffffffffffff1673ffffffffffffffffffffffffffffffffffffffff16815260200190815260200160002060006101000a81548160ff0219169083151502179055508173ffffffffffffffffffffffffffffffffffffffff168373ffffffffffffffffffffffffffffffffffffffff167f17307eab39ab6107e8899845ad3d59bd9653f200f220920489ca2b5937696c3183604051612a379190613296565b60405180910390a3505050565b6001816000016000828254019250508190555050565b612a74828260405180602001604052806000815250612c0b565b5050565b612a8182612462565b612ac0576040517f08c379a0000000000000000000000000000000000000000000000000000000008152600401612ab790614e9e565b60405180910390fd5b80600760008481526020019081526020016000209080519060200190612ae792919061313f565b505050565b612af784848461266d565b612b0384848484612c66565b612b42576040517f08c379a0000000000000000000000000000000000000000000000000000000008152600401612b3990614f30565b60405180910390fd5b50505050565b606060405180602001604052806000815250905090565b6060612b6a82612462565b612ba9576040517f08c379a0000000000000000000000000000000000000000000000000000000008152600401612ba090614fc2565b60405180910390fd5b6000612bb3612b48565b90506000815111612bd35760405180602001604052806000815250612bfe565b80612bdd84612dfd565b604051602001612bee929190614b90565b6040516020818303038152906040525b915050919050565b505050565b612c158383612f5e565b612c226000848484612c66565b612c61576040517f08c379a0000000000000000000000000000000000000000000000000000000008152600401612c5890614f30565b60405180910390fd5b505050565b6000612c878473ffffffffffffffffffffffffffffffffffffffff1661312c565b15612df0578373ffffffffffffffffffffffffffffffffffffffff1663150b7a02612cb06124ce565b8786866040518563ffffffff1660e01b8152600401612cd29493929190615037565b602060405180830381600087803b158015612cec57600080fd5b505af1925050508015612d1d57506040513d601f19601f82011682018060405250810190612d1a9190615098565b60015b612da0573d8060008114612d4d576040519150601f19603f3d011682016040523d82523d6000602084013e612d52565b606091505b50600081511415612d98576040517f08c379a0000000000000000000000000000000000000000000000000000000008152600401612d8f90614f30565b60405180910390fd5b805181602001fd5b63150b7a0260e01b7bffffffffffffffffffffffffffffffffffffffffffffffffffffffff1916817bffffffffffffffffffffffffffffffffffffffffffffffffffffffff191614915050612df5565b600190505b949350505050565b60606000821415612e45576040518060400160405280600181526020017f30000000000000000000000000000000000000000000000000000000000000008152509050612f59565b600082905060005b60008214612e77578080612e60906150c5565b915050600a82612e709190614208565b9150612e4d565b60008167ffffffffffffffff811115612e9357612e92613756565b5b6040519080825280601f01601f191660200182016040528015612ec55781602001600182028036833780820191505090505b5090505b60008514612f5257600182612ede9190614239565b9150600a85612eed919061510e565b6030612ef99190614d6a565b60f81b818381518110612f0f57612f0e61513f565b5b60200101907effffffffffffffffffffffffffffffffffffffffffffffffffffffffffffff1916908160001a905350600a85612f4b9190614208565b9450612ec9565b8093505050505b919050565b600073ffffffffffffffffffffffffffffffffffffffff168273ffffffffffffffffffffffffffffffffffffffff161415612fce576040517f08c379a0000000000000000000000000000000000000000000000000000000008152600401612fc5906151ba565b60405180910390fd5b612fd781612462565b15613017576040517f08c379a000000000000000000000000000000000000000000000000000000000815260040161300e90615226565b60405180910390fd5b61302360008383612c06565b6001600460008473ffffffffffffffffffffffffffffffffffffffff1673ffffffffffffffffffffffffffffffffffffffff16815260200190815260200160002060008282546130739190614d6a565b92505081905550816003600083815260200190815260200160002060006101000a81548173ffffffffffffffffffffffffffffffffffffffff021916908373ffffffffffffffffffffffffffffffffffffffff160217905550808273ffffffffffffffffffffffffffffffffffffffff16600073ffffffffffffffffffffffffffffffffffffffff167fddf252ad1be2c89b69c2b068fc378daa952ba7f163c4a11628f55a4df523b3ef60405160405180910390a45050565b600080823b905060008111915050919050565b82805461314b90613b6a565b90600052602060002090601f01602090048101928261316d57600085556131b4565b82601f1061318657805160ff19168380011785556131b4565b828001600101855582156131b4579182015b828111156131b3578251825591602001919060010190613198565b5b5090506131c191906131c5565b5090565b5b808211156131de5760008160009055506001016131c6565b5090565b6000604051905090565b600080fd5b600080fd5b60007fffffffff0000000000000000000000000000000000000000000000000000000082169050919050565b61322b816131f6565b811461323657600080fd5b50565b60008135905061324881613222565b92915050565b600060208284031215613264576132636131ec565b5b600061327284828501613239565b91505092915050565b60008115159050919050565b6132908161327b565b82525050565b60006020820190506132ab6000830184613287565b92915050565b600073ffffffffffffffffffffffffffffffffffffffff82169050919050565b60006132dc826132b1565b9050919050565b6132ec816132d1565b82525050565b600060208201905061330760008301846132e3565b92915050565b600081519050919050565b600082825260208201905092915050565b60005b8381101561334757808201518184015260208101905061332c565b83811115613356576000848401525b50505050565b6000601f19601f8301169050919050565b60006133788261330d565b6133828185613318565b9350613392818560208601613329565b61339b8161335c565b840191505092915050565b600060208201905081810360008301526133c0818461336d565b905092915050565b6000819050919050565b6133db816133c8565b81146133e657600080fd5b50565b6000813590506133f8816133d2565b92915050565b600060208284031215613414576134136131ec565b5b6000613422848285016133e9565b91505092915050565b6000613436826132b1565b9050919050565b6134468161342b565b82525050565b6000602082019050613461600083018461343d565b92915050565b6134708161342b565b811461347b57600080fd5b50565b60008135905061348d81613467565b92915050565b600080604083850312156134aa576134a96131ec565b5b60006134b88582860161347e565b92505060206134c9858286016133e9565b9150509250929050565b6000806000606084860312156134ec576134eb6131ec565b5b60006134fa8682870161347e565b935050602061350b8682870161347e565b925050604061351c868287016133e9565b9150509250925092565b7f4e487b7100000000000000000000000000000000000000000000000000000000600052602160045260246000fd5b6002811061356657613565613526565b5b50565b600081905061357782613555565b919050565b600061358782613569565b9050919050565b6135978161357c565b82525050565b6135a6816133c8565b82525050565b60006080820190506135c16000830187613287565b6135ce602083018661358e565b6135db604083018561359d565b6135e8606083018461359d565b95945050505050565b6135fa8161327b565b811461360557600080fd5b50565b600081359050613617816135f1565b92915050565b60008060008060808587031215613637576136366131ec565b5b6000613645878288016133e9565b945050602061365687828801613608565b935050604061366787828801613608565b9250506060613678878288016133e9565b91505092959194509250565b60006020828403121561369a576136996131ec565b5b60006136a88482850161347e565b91505092915050565b60006020820190506136c6600083018461359d565b92915050565b600080604083850312156136e3576136e26131ec565b5b60006136f18582860161347e565b925050602061370285828601613608565b9150509250929050565b60008060408385031215613723576137226131ec565b5b6000613731858286016133e9565b92505060206137428582860161347e565b9150509250929050565b600080fd5b600080fd5b7f4e487b7100000000000000000000000000000000000000000000000000000000600052604160045260246000fd5b61378e8261335c565b810181811067ffffffffffffffff821117156137ad576137ac613756565b5b80604052505050565b60006137c06131e2565b90506137cc8282613785565b919050565b600067ffffffffffffffff8211156137ec576137eb613756565b5b6137f58261335c565b9050602081019050919050565b82818337600083830152505050565b600061382461381f846137d1565b6137b6565b9050828152602081018484840111156138405761383f613751565b5b61384b848285613802565b509392505050565b600082601f8301126138685761386761374c565b5b8135613878848260208601613811565b91505092915050565b60008060008060008060008060006101208a8c0312156138a4576138a36131ec565b5b60008a013567ffffffffffffffff8111156138c2576138c16131f1565b5b6138ce8c828d01613853565b99505060208a013567ffffffffffffffff8111156138ef576138ee6131f1565b5b6138fb8c828d01613853565b98505060408a013567ffffffffffffffff81111561391c5761391b6131f1565b5b6139288c828d01613853565b97505060608a013567ffffffffffffffff811115613949576139486131f1565b5b6139558c828d01613853565b96505060806139668c828d01613608565b95505060a06139778c828d01613608565b94505060c06139888c828d016133e9565b93505060e06139998c828d016133e9565b9250506101008a013567ffffffffffffffff8111156139bb576139ba6131f1565b5b6139c78c828d01613853565b9150509295985092959850929598565b600067ffffffffffffffff8211156139f2576139f1613756565b5b6139fb8261335c565b9050602081019050919050565b6000613a1b613a16846139d7565b6137b6565b905082815260208101848484011115613a3757613a36613751565b5b613a42848285613802565b509392505050565b600082601f830112613a5f57613a5e61374c565b5b8135613a6f848260208601613a08565b91505092915050565b60008060008060808587031215613a9257613a916131ec565b5b6000613aa08782880161347e565b9450506020613ab18782880161347e565b9350506040613ac2878288016133e9565b925050606085013567ffffffffffffffff811115613ae357613ae26131f1565b5b613aef87828801613a4a565b91505092959194509250565b60008060408385031215613b1257613b116131ec565b5b6000613b208582860161347e565b9250506020613b318582860161347e565b9150509250929050565b7f4e487b7100000000000000000000000000000000000000000000000000000000600052602260045260246000fd5b60006002820490506001821680613b8257607f821691505b60208210811415613b9657613b95613b3b565b5b50919050565b7f4552433732313a20617070726f76656420717565727920666f72206e6f6e657860008201527f697374656e7420746f6b656e0000000000000000000000000000000000000000602082015250565b6000613bf8602c83613318565b9150613c0382613b9c565b604082019050919050565b60006020820190508181036000830152613c2781613beb565b9050919050565b7f4552433732313a20617070726f76616c20746f2063757272656e74206f776e6560008201527f7200000000000000000000000000000000000000000000000000000000000000602082015250565b6000613c8a602183613318565b9150613c9582613c2e565b604082019050919050565b60006020820190508181036000830152613cb981613c7d565b9050919050565b7f4552433732313a20617070726f76652063616c6c6572206973206e6f74206f7760008201527f6e6572206e6f7220617070726f76656420666f7220616c6c0000000000000000602082015250565b6000613d1c603883613318565b9150613d2782613cc0565b604082019050919050565b60006020820190508181036000830152613d4b81613d0f565b9050919050565b7f4552433732313a207472616e736665722063616c6c6572206973206e6f74206f60008201527f776e6572206e6f7220617070726f766564000000000000000000000000000000602082015250565b6000613dae603183613318565b9150613db982613d52565b604082019050919050565b60006020820190508181036000830152613ddd81613da1565b9050919050565b7f5265656e7472616e637947756172643a207265656e7472616e742063616c6c00600082015250565b6000613e1a601f83613318565b9150613e2582613de4565b602082019050919050565b60006020820190508181036000830152613e4981613e0d565b9050919050565b7f437573746f6d436f6c6c656374696f6e202d3e20746f6b656e496420646f657360008201527f6e277420636f72726573706f6e6420746f20616e79204e465400000000000000602082015250565b6000613eac603983613318565b9150613eb782613e50565b604082019050919050565b60006020820190508181036000830152613edb81613e9f565b9050919050565b7f437573746f6d436f6c6c656374696f6e202d3e2043616c6c6572206973206e6660008201527f74206f776e657200000000000000000000000000000000000000000000000000602082015250565b6000613f3e602783613318565b9150613f4982613ee2565b604082019050919050565b60006020820190508181036000830152613f6d81613f31565b9050919050565b7f437573746f6d436f6c6c656374696f6e203a20706c616365426964202d3e204e60008201527f4654206973206c697374656420666f722062696473206f6e6c79000000000000602082015250565b6000613fd0603a83613318565b9150613fdb82613f74565b604082019050919050565b60006020820190508181036000830152613fff81613fc3565b9050919050565b7f437573746f6d436f6c6c656374696f6e203a206275794669786564507269636560008201527f4e4654202d3e204e4654206973206e6f7420666f722073616c65000000000000602082015250565b6000614062603a83613318565b915061406d82614006565b604082019050919050565b6000602082019050818103600083015261409181614055565b9050919050565b7f437573746f6d436f6c6c656374696f6e203a206275794669786564507269636560008201527f4e4654202d3e20506c656173652073656e6420657861637420616d6f756e742060208201527f6173207072696365000000000000000000000000000000000000000000000000604082015250565b600061411a604883613318565b915061412582614098565b606082019050919050565b600060208201905081810360008301526141498161410d565b9050919050565b7f4e487b7100000000000000000000000000000000000000000000000000000000600052601160045260246000fd5b600061418a826133c8565b9150614195836133c8565b9250817fffffffffffffffffffffffffffffffffffffffffffffffffffffffffffffffff04831182151516156141ce576141cd614150565b5b828202905092915050565b7f4e487b7100000000000000000000000000000000000000000000000000000000600052601260045260246000fd5b6000614213826133c8565b915061421e836133c8565b92508261422e5761422d6141d9565b5b828204905092915050565b6000614244826133c8565b915061424f836133c8565b92508282101561426257614261614150565b5b828203905092915050565b6000608082019050614282600083018761343d565b61428f602083018661343d565b61429c604083018561343d565b6142a9606083018461359d565b95945050505050565b7f536f6c6400000000000000000000000000000000000000000000000000000000600082015250565b60006142e8600483613318565b91506142f3826142b2565b602082019050919050565b600060c082019050614313600083018861343d565b614320602083018761359d565b8181036040830152614331816142db565b9050614340606083018661343d565b61434d608083018561343d565b61435a60a083018461359d565b9695505050505050565b7f4552433732313a206f776e657220717565727920666f72206e6f6e657869737460008201527f656e7420746f6b656e0000000000000000000000000000000000000000000000602082015250565b60006143c0602983613318565b91506143cb82614364565b604082019050919050565b600060208201905081810360008301526143ef816143b3565b9050919050565b7f437573746f6d436f6c6c656374696f6e202d3e2043616c6c6572206973206e6f60008201527f74206e6674206f776e6572000000000000000000000000000000000000000000602082015250565b6000614452602b83613318565b915061445d826143f6565b604082019050919050565b6000602082019050818103600083015261448181614445565b9050919050565b7f4552433732313a2062616c616e636520717565727920666f7220746865207a6560008201527f726f206164647265737300000000000000000000000000000000000000000000602082015250565b60006144e4602a83613318565b91506144ef82614488565b604082019050919050565b60006020820190508181036000830152614513816144d7565b9050919050565b7f437573746f6d436f6c6c656374696f6e202d3e204e465420646f65736e27742060008201527f616c6c6f772062696464696e6700000000000000000000000000000000000000602082015250565b6000614576602d83613318565b91506145818261451a565b604082019050919050565b600060208201905081810360008301526145a581614569565b9050919050565b7f437573746f6d436f6c6c656374696f6e202d3e204e6f2062696420627920636160008201527f6c6c657200000000000000000000000000000000000000000000000000000000602082015250565b6000614608602483613318565b9150614613826145ac565b604082019050919050565b60006020820190508181036000830152614637816145fb565b9050919050565b6000606082019050614653600083018661343d565b614660602083018561359d565b61466d604083018461343d565b949350505050565b7f437573746f6d436f6c6c656374696f6e203a20706c616365426964202d3e204360008201527f616e2774206269642074776963652e2043616e63656c2050726576696f75732060208201527f6269640000000000000000000000000000000000000000000000000000000000604082015250565b60006146f7604383613318565b915061470282614675565b606082019050919050565b60006020820190508181036000830152614726816146ea565b9050919050565b7f437573746f6d436f6c6c656374696f6e203a20706c616365426964202d3e204360008201527f616e277420626964206c6f776572207468616e206e66742773206d696e696d7560208201527f6d20707269636500000000000000000000000000000000000000000000000000604082015250565b60006147af604783613318565b91506147ba8261472d565b606082019050919050565b600060208201905081810360008301526147de816147a2565b9050919050565b60006080820190506147fa600083018761343d565b614807602083018661359d565b614814604083018561343d565b614821606083018461359d565b95945050505050565b7f437573746f6d436f6c6c656374696f6e202d3e204e6f2062696420627920757360008201527f65722027746f5f27000000000000000000000000000000000000000000000000602082015250565b6000614886602883613318565b91506148918261482a565b604082019050919050565b600060208201905081810360008301526148b581614879565b9050919050565b7f437573746f6d436f6c6c656374696f6e203a206d696e74546f6b656e202d3e2060008201527f4e6f7420636f6c6c656374696f6e206f776e6572000000000000000000000000602082015250565b6000614918603483613318565b9150614923826148bc565b604082019050919050565b600060208201905081810360008301526149478161490b565b9050919050565b600060c082019050614963600083018961343d565b614970602083018861359d565b8181036040830152614982818761336d565b90508181036060830152614996818661336d565b905081810360808301526149aa818561336d565b905081810360a08301526149be818461336d565b9050979650505050505050565b7f4d696e7465640000000000000000000000000000000000000000000000000000600082015250565b6000614a01600683613318565b9150614a0c826149cb565b602082019050919050565b6000819050919050565b6000819050919050565b6000614a46614a41614a3c84614a17565b614a21565b6133c8565b9050919050565b614a5681614a2b565b82525050565b600060c082019050614a71600083018861343d565b614a7e602083018761359d565b8181036040830152614a8f816149f4565b9050614a9e606083018661343d565b614aab608083018561343d565b614ab860a0830184614a4d565b9695505050505050565b7f45524337323155524953746f726167653a2055524920717565727920666f722060008201527f6e6f6e6578697374656e7420746f6b656e000000000000000000000000000000602082015250565b6000614b1e603183613318565b9150614b2982614ac2565b604082019050919050565b60006020820190508181036000830152614b4d81614b11565b9050919050565b600081905092915050565b6000614b6a8261330d565b614b748185614b54565b9350614b84818560208601613329565b80840191505092915050565b6000614b9c8285614b5f565b9150614ba88284614b5f565b91508190509392505050565b7f4552433732313a206f70657261746f7220717565727920666f72206e6f6e657860008201527f697374656e7420746f6b656e0000000000000000000000000000000000000000602082015250565b6000614c10602c83613318565b9150614c1b82614bb4565b604082019050919050565b60006020820190508181036000830152614c3f81614c03565b9050919050565b7f4552433732313a207472616e73666572206f6620746f6b656e2074686174206960008201527f73206e6f74206f776e0000000000000000000000000000000000000000000000602082015250565b6000614ca2602983613318565b9150614cad82614c46565b604082019050919050565b60006020820190508181036000830152614cd181614c95565b9050919050565b7f4552433732313a207472616e7366657220746f20746865207a65726f2061646460008201527f7265737300000000000000000000000000000000000000000000000000000000602082015250565b6000614d34602483613318565b9150614d3f82614cd8565b604082019050919050565b60006020820190508181036000830152614d6381614d27565b9050919050565b6000614d75826133c8565b9150614d80836133c8565b9250827fffffffffffffffffffffffffffffffffffffffffffffffffffffffffffffffff03821115614db557614db4614150565b5b828201905092915050565b7f4552433732313a20617070726f766520746f2063616c6c657200000000000000600082015250565b6000614df6601983613318565b9150614e0182614dc0565b602082019050919050565b60006020820190508181036000830152614e2581614de9565b9050919050565b7f45524337323155524953746f726167653a2055524920736574206f66206e6f6e60008201527f6578697374656e7420746f6b656e000000000000000000000000000000000000602082015250565b6000614e88602e83613318565b9150614e9382614e2c565b604082019050919050565b60006020820190508181036000830152614eb781614e7b565b9050919050565b7f4552433732313a207472616e7366657220746f206e6f6e20455243373231526560008201527f63656976657220696d706c656d656e7465720000000000000000000000000000602082015250565b6000614f1a603283613318565b9150614f2582614ebe565b604082019050919050565b60006020820190508181036000830152614f4981614f0d565b9050919050565b7f4552433732314d657461646174613a2055524920717565727920666f72206e6f60008201527f6e6578697374656e7420746f6b656e0000000000000000000000000000000000602082015250565b6000614fac602f83613318565b9150614fb782614f50565b604082019050919050565b60006020820190508181036000830152614fdb81614f9f565b9050919050565b600081519050919050565b600082825260208201905092915050565b600061500982614fe2565b6150138185614fed565b9350615023818560208601613329565b61502c8161335c565b840191505092915050565b600060808201905061504c600083018761343d565b615059602083018661343d565b615066604083018561359d565b81810360608301526150788184614ffe565b905095945050505050565b60008151905061509281613222565b92915050565b6000602082840312156150ae576150ad6131ec565b5b60006150bc84828501615083565b91505092915050565b60006150d0826133c8565b91507fffffffffffffffffffffffffffffffffffffffffffffffffffffffffffffffff82141561510357615102614150565b5b600182019050919050565b6000615119826133c8565b9150615124836133c8565b925082615134576151336141d9565b5b828206905092915050565b7f4e487b7100000000000000000000000000000000000000000000000000000000600052603260045260246000fd5b7f4552433732313a206d696e7420746f20746865207a65726f2061646472657373600082015250565b60006151a4602083613318565b91506151af8261516e565b602082019050919050565b600060208201905081810360008301526151d381615197565b9050919050565b7f4552433732313a20746f6b656e20616c7265616479206d696e74656400000000600082015250565b6000615210601c83613318565b915061521b826151da565b602082019050919050565b6000602082019050818103600083015261523f81615203565b905091905056fea26469706673582212201bb57a09fe33257128239e1e6c990056d1e0fb8c889202c9ebe2745b9c95b06c64736f6c63430008090033",
  "immutableReferences": {},
  "source": "// SPDX-License-Identifier: MIT\npragma solidity ^0.8.6;\n\nimport \"@openzeppelin/contracts/token/ERC721/extensions/ERC721URIStorage.sol\";\nimport \"@openzeppelin/contracts/utils/Counters.sol\";\nimport \"@openzeppelin/contracts/security/ReentrancyGuard.sol\";\nimport \"./Marketplace.sol\";\n\nenum SellType {\n    FixedPrice,\n    Bidding\n}\n\ncontract CustomCollection is ReentrancyGuard, ERC721URIStorage {\n    // Maintaining a counter of no of nfts in collection\n    using Counters for Counters.Counter;\n    Counters.Counter private _tokenIds;\n\n    // Store collection owner/creator\n    address payable public creator;\n\n    // Store collection Metadata\n    string collectionMetadataURI;\n\n    address payable marketPlaceAddress;\n\n    // On Collection creation\n    constructor(\n        string memory name_,\n        string memory symbol_,\n        string memory collectionMetadata_,\n        address creator_\n    ) ERC721(name_, symbol_) {\n        creator = payable(creator_);\n\n        marketPlaceAddress = payable(msg.sender);\n\n        collectionMetadataURI = collectionMetadata_;\n    }\n\n    // ** NFT ** //\n\n    // Required NFT data in contract\n    struct NFT {\n        bool forSale;\n        SellType sellType;\n        uint256 price;\n        uint256 royalty;\n    }\n\n    // To store nfts (tokenId => NFT)\n    mapping(uint256 => NFT) public nfts;\n\n    // To store bids (tokenId => (address => price))\n    mapping(uint256 => mapping(address => uint256)) bids;\n\n    // tokenId to secret\n    mapping(uint256 => string) unlockableContent;\n\n    // On minting of Nft\n    event NFTCreated(\n        address cAddress,\n        uint256 tokenId,\n        string name,\n        string image,\n        string properties,\n        string metadata\n    );\n\n    // On mint/transfer/sale of nft\n    event NFTEvent(\n        address cAddress,\n        uint256 tokenId,\n        string eventType,\n        address from,\n        address to,\n        uint256 price\n    );\n\n    // On bid placed\n    event BidPlaced(\n        address cAddress,\n        uint256 tokenId,\n        address from,\n        uint256 price\n    );\n\n    // On bid canceled\n    event BidCanceled(address cAddress, uint256 tokenId, address from);\n\n    // Checks if tokenId exists\n    modifier tokenExists(uint256 tokenId) {\n        require(\n            tokenId <= _tokenIds.current(),\n            \"CustomCollection -> tokenId doesn't correspond to any NFT\"\n        );\n        _;\n    }\n\n    // Checks if owner of tokenId is caller\n    modifier callerIsNftOwner(uint256 tokenId) {\n        // Only owner of token can access secret\n        require(\n            msg.sender == ownerOf(tokenId),\n            \"CustomCollection -> Caller is not nft owner\"\n        );\n        _;\n    }\n\n    // Checks if owner of tokenId is not caller\n    modifier callerIsNotNftOwner(uint256 tokenId) {\n        // Only owner of token can access secret\n        require(\n            msg.sender != ownerOf(tokenId),\n            \"CustomCollection -> Caller is nft owner\"\n        );\n        _;\n    }\n\n    // Checks if NFT is listed for bids\n    modifier isBiddable(uint256 tokenId) {\n        require(\n            nfts[tokenId].sellType == SellType.Bidding,\n            \"CustomCollection -> NFT doesn't allow bidding\"\n        );\n        _;\n    }\n\n    // List NFT on Marketplace\n    function mintNFT(\n        string memory name_,\n        string memory image_,\n        string memory properties_,\n        string memory metadata_,\n        bool forSale_,\n        bool isFixedPrice_,\n        uint256 price_,\n        uint256 royalty_,\n        string memory unlockableString_\n    ) public {\n        require(\n            msg.sender == creator,\n            \"CustomCollection : mintToken -> Not collection owner\"\n        );\n\n        _tokenIds.increment();\n        uint256 tokenId = _tokenIds.current();\n\n        // ERC721 Mint\n        _safeMint(msg.sender, tokenId);\n\n        // ERC721 set Metadata\n        _setTokenURI(tokenId, metadata_);\n\n        // In case of bidding nft transfer is called by owner of nft\n        // But for fixed price nft transfer can be only done by marketplace\n        if (isFixedPrice_) {\n            // ERC721 approve marketplace to manage owner's current token\n            approve(marketPlaceAddress, tokenId);\n        }\n\n        // Set unlockableContent\n        unlockableContent[tokenId] = unlockableString_;\n\n        // Store nft in marketplace\n        nfts[tokenId] = NFT({\n            forSale: forSale_,\n            sellType: isFixedPrice_ ? SellType.FixedPrice : SellType.Bidding,\n            price: price_,\n            royalty: royalty_\n        });\n\n        // Log events to subgraph\n        emit NFTCreated(\n            address(this),\n            tokenId,\n            name_,\n            image_,\n            properties_,\n            metadata_\n        );\n\n        emit NFTEvent(\n            address(this),\n            tokenId,\n            \"Minted\",\n            address(0),\n            msg.sender,\n            0\n        );\n    }\n\n    // Buy Fixed Price NFT\n    function buyFixedPriceNFT(uint256 tokenId)\n        public\n        payable\n        nonReentrant\n        tokenExists(tokenId)\n        callerIsNotNftOwner(tokenId)\n    {\n        NFT memory nft = nfts[tokenId];\n\n        require(\n            nft.sellType == SellType.FixedPrice,\n            \"CustomCollection : placeBid -> NFT is listed for bids only\"\n        );\n        require(\n            nft.forSale,\n            \"CustomCollection : buyFixedPriceNFT -> NFT is not for sale\"\n        );\n        require(\n            msg.value == nft.price,\n            \"CustomCollection : buyFixedPriceNFT -> Please send exact amount as price\"\n        );\n\n        // Tranfer eth to creator as royalty\n        creator.transfer(((nft.price * nft.royalty) / 100));\n\n        // Marketplace gets 1% commission\n        marketPlaceAddress.transfer(nft.price / 100);\n\n        // Tranfer remaining eth to current owner\n        payable(ownerOf(tokenId)).transfer(\n            (nft.price * (100 - nft.royalty - 1)) / 100\n        );\n\n        // Transfer nft to msg.sender\n        Marketplace(marketPlaceAddress).marketPlaceTransferFrom(\n            address(this),\n            ownerOf(tokenId),\n            msg.sender,\n            tokenId\n        );\n\n        // New owner has to approve marketplace to manage his token\n        approve(marketPlaceAddress, tokenId);\n\n        // Unlist item\n        nfts[tokenId].forSale = false;\n\n        // Log event to subgraph\n        emit NFTEvent(\n            address(this),\n            tokenId,\n            \"Sold\",\n            ownerOf(tokenId),\n            msg.sender,\n            nft.price / 1e12\n        );\n    }\n\n    // Places bid. Recieves eth from user which are held by the contract\n    function placeBid(uint256 tokenId)\n        public\n        payable\n        tokenExists(tokenId)\n        callerIsNotNftOwner(tokenId)\n        isBiddable(tokenId)\n    {\n        require(\n            bids[tokenId][msg.sender] == 0,\n            \"CustomCollection : placeBid -> Can't bid twice. Cancel Previous bid\"\n        );\n        require(\n            msg.value >= nfts[tokenId].price,\n            \"CustomCollection : placeBid -> Can't bid lower than nft's minimum price\"\n        );\n\n        // Add bid on chain\n        bids[tokenId][msg.sender] = msg.value;\n\n        // Log event to subgraph\n        emit BidPlaced(address(this), tokenId, msg.sender, msg.value / 1e12);\n    }\n\n    // Cancels bid\n    function cancelBid(uint256 tokenId)\n        public\n        tokenExists(tokenId)\n        isBiddable(tokenId)\n    {\n        require(\n            bids[tokenId][msg.sender] != 0,\n            \"CustomCollection -> No bid by caller\"\n        );\n\n        uint256 bidAmount = bids[tokenId][msg.sender];\n\n        // Remove bid on chain\n        bids[tokenId][msg.sender] = 0;\n\n        // Transfer bidder's eth back\n        payable(msg.sender).transfer(bidAmount);\n\n        // Log event to subgraph\n        emit BidCanceled(address(this), tokenId, msg.sender);\n    }\n\n    // Sell NFT to a bidder\n    function sellBiddingNFT(uint256 tokenId, address to_)\n        public\n        nonReentrant\n        tokenExists(tokenId)\n        callerIsNftOwner(tokenId)\n        isBiddable(tokenId)\n    {\n        require(\n            bids[tokenId][to_] != 0,\n            \"CustomCollection -> No bid by user 'to_'\"\n        );\n\n        // Tranfer eth to creator as royalty\n        creator.transfer(((bids[tokenId][to_] * nfts[tokenId].royalty) / 100));\n\n        // Marketplace gets 1% commission\n        marketPlaceAddress.transfer(bids[tokenId][to_] / 100);\n\n        // Tranfer remaining eth to current owner\n        payable(ownerOf(tokenId)).transfer(\n            (bids[tokenId][to_] * (100 - nfts[tokenId].royalty - 1)) / 100\n        );\n\n        // Transfer nft to msg.sender\n        safeTransferFrom(msg.sender, to_, tokenId);\n\n        // Log event to subgraph\n        emit NFTEvent(\n            address(this),\n            tokenId,\n            \"Sold\",\n            ownerOf(tokenId),\n            to_,\n            bids[tokenId][to_] / 1e12\n        );\n\n        emit BidCanceled(address(this), tokenId, to_);\n    }\n\n    // Get unlockable content to owner of nft\n    function getUnlockableContent(uint256 tokenId)\n        public\n        view\n        tokenExists(tokenId)\n        callerIsNftOwner(tokenId)\n        returns (string memory)\n    {\n        return unlockableContent[tokenId];\n    }\n\n    // Modify listing mechanism\n    function modifyListingMechanism(\n        uint256 tokenId,\n        bool setFixPrice,\n        bool forSale,\n        uint256 newPrice\n    )\n        public\n        // address[] memory bidders\n        tokenExists(tokenId)\n        callerIsNftOwner(tokenId)\n    {\n        // For fixed price tokens\n        if (nfts[tokenId].sellType == SellType.FixedPrice) {\n            if (!setFixPrice) {\n                // Convert to bidding and change price\n                nfts[tokenId].sellType = SellType.Bidding;\n                nfts[tokenId].price = newPrice;\n            } else {\n                // Change price and forSale status\n                nfts[tokenId].forSale = forSale;\n                nfts[tokenId].price = newPrice;\n            }\n        }\n        // For bidding tokens\n        // else {\n        //     if(setFixPrice) {\n        //         // Convert to fixed price and change price, forSale\n        //         nfts[tokenId].sellType = SellType.FixedPrice;\n        //         nfts[tokenId].forSale = forSale;\n        //         nfts[tokenId].price = newPrice;\n\n        //         // Approve marketplace to trade this token\n        //         approve(marketPlaceAddress, tokenId);\n\n        //         // Cancel all bids, Return their money, emit events\n        //         for(uint i=0; i<bidders.length; i++) {\n        //             // Transfer bidder's eth back\n        //             payable(bidders[i]).transfer(bids[tokenId][bidders[i]]);\n\n        //             // Remove bid on chain\n        //             bids[tokenId][bidders[i]] = 0;\n\n        //             // Log event to subgraph\n        //             emit BidCanceled(address(this), tokenId, bidders[i]);\n        //         }\n\n        //     } else {\n        //         // Change minimum price\n        //         nfts[tokenId].price = newPrice;\n        //     }\n        // }\n    }\n\n    // // struct for entire collection data\n    // struct Collection {\n    //     address cAddress;\n    //     string name;\n    //     string symbol;\n    //     string metadataURI;\n    //     address creator;\n    // }\n\n    // // Get collection overview\n    // function getCollectionOverview() public view returns (Collection memory) {\n    //     return\n    //         Collection(\n    //             address(this),\n    //             name(),\n    //             symbol(),\n    //             collectionMetadataURI,\n    //             creator\n    //         );\n    // }\n\n    // // Get NFT Overview\n    // function getNFTOverview(uint256 tokenId_)\n    //     public\n    //     view\n    //     returns (\n    //         address cAddress,\n    //         uint256 tokenId,\n    //         address owner,\n    //         string memory metadataURI,\n    //         NFT memory\n    //     )\n    // {\n    //     require(\n    //         tokenId_ <= _tokenIds.current(),\n    //         \"CustomCollection : sellBiddingNFT -> tokenId doesn't correspond to any NFT\"\n    //     );\n\n    //     return (\n    //         address(this),\n    //         tokenId_,\n    //         ownerOf(tokenId_),\n    //         tokenURI(tokenId_),\n    //         nfts[tokenId_]\n    //     );\n    // }\n}\n",
  "sourcePath": "/Users/hrushi/Projects/Crypto/nft-truffle/contracts/CustomCollection.sol",
  "compiler": {
    "name": "solc",
    "version": "0.8.9+commit.e5eed63a.Emscripten.clang"
  },
  "schemaVersion": "3.4.3",
  "updatedAt": "2021-12-13T08:47:49.089Z",
  "devdoc": {
    "kind": "dev",
    "methods": {
      "approve(address,uint256)": {
        "details": "See {IERC721-approve}."
      },
      "balanceOf(address)": {
        "details": "See {IERC721-balanceOf}."
      },
      "getApproved(uint256)": {
        "details": "See {IERC721-getApproved}."
      },
      "isApprovedForAll(address,address)": {
        "details": "See {IERC721-isApprovedForAll}."
      },
      "name()": {
        "details": "See {IERC721Metadata-name}."
      },
      "ownerOf(uint256)": {
        "details": "See {IERC721-ownerOf}."
      },
      "safeTransferFrom(address,address,uint256)": {
        "details": "See {IERC721-safeTransferFrom}."
      },
      "safeTransferFrom(address,address,uint256,bytes)": {
        "details": "See {IERC721-safeTransferFrom}."
      },
      "setApprovalForAll(address,bool)": {
        "details": "See {IERC721-setApprovalForAll}."
      },
      "supportsInterface(bytes4)": {
        "details": "See {IERC165-supportsInterface}."
      },
      "symbol()": {
        "details": "See {IERC721Metadata-symbol}."
      },
      "tokenURI(uint256)": {
        "details": "See {IERC721Metadata-tokenURI}."
      },
      "transferFrom(address,address,uint256)": {
        "details": "See {IERC721-transferFrom}."
      }
    },
    "version": 1
  },
  "userdoc": {
    "kind": "user",
    "methods": {},
    "version": 1
  }
}