{
  "contractName": "Marketplace",
  "abi": [
    {
      "anonymous": false,
      "inputs": [
        {
          "indexed": false,
          "internalType": "address",
          "name": "cAddress",
          "type": "address"
        },
        {
          "indexed": false,
          "internalType": "string",
          "name": "name",
          "type": "string"
        },
        {
          "indexed": false,
          "internalType": "string",
          "name": "image",
          "type": "string"
        },
        {
          "indexed": false,
          "internalType": "address",
          "name": "creator",
          "type": "address"
        },
        {
          "indexed": false,
          "internalType": "string",
          "name": "metadata",
          "type": "string"
        }
      ],
      "name": "CollectionCreated",
      "type": "event"
    },
    {
      "anonymous": false,
      "inputs": [
        {
          "indexed": false,
          "internalType": "address",
          "name": "uAddress",
          "type": "address"
        },
        {
          "indexed": false,
          "internalType": "string",
          "name": "name",
          "type": "string"
        },
        {
          "indexed": false,
          "internalType": "string",
          "name": "image",
          "type": "string"
        },
        {
          "indexed": false,
          "internalType": "string",
          "name": "metadata",
          "type": "string"
        }
      ],
      "name": "UserCreated",
      "type": "event"
    },
    {
      "inputs": [
        {
          "internalType": "address",
          "name": "",
          "type": "address"
        }
      ],
      "name": "users",
      "outputs": [
        {
          "internalType": "string",
          "name": "name",
          "type": "string"
        },
        {
          "internalType": "string",
          "name": "metadataURI",
          "type": "string"
        }
      ],
      "stateMutability": "view",
      "type": "function"
    },
    {
      "stateMutability": "payable",
      "type": "receive"
    },
    {
      "inputs": [
        {
          "internalType": "string",
          "name": "name_",
          "type": "string"
        },
        {
          "internalType": "string",
          "name": "image_",
          "type": "string"
        },
        {
          "internalType": "string",
          "name": "metadata_",
          "type": "string"
        }
      ],
      "name": "createUser",
      "outputs": [],
      "stateMutability": "nonpayable",
      "type": "function"
    },
    {
      "inputs": [
        {
          "internalType": "address",
          "name": "cAddress_",
          "type": "address"
        },
        {
          "internalType": "string",
          "name": "name_",
          "type": "string"
        },
        {
          "internalType": "string",
          "name": "image_",
          "type": "string"
        },
        {
          "internalType": "string",
          "name": "metadata_",
          "type": "string"
        }
      ],
      "name": "listCollection",
      "outputs": [],
      "stateMutability": "nonpayable",
      "type": "function"
    },
    {
      "inputs": [
        {
          "internalType": "address",
          "name": "cAddress",
          "type": "address"
        },
        {
          "internalType": "address",
          "name": "nftOwner",
          "type": "address"
        },
        {
          "internalType": "address",
          "name": "newOwner",
          "type": "address"
        },
        {
          "internalType": "uint256",
          "name": "tokenId",
          "type": "uint256"
        }
      ],
      "name": "marketPlaceTransferFrom",
      "outputs": [],
      "stateMutability": "nonpayable",
      "type": "function"
    }
  ],
  "bytecode": "0x608060405234801561001057600080fd5b50611032806100206000396000f3fe6080604052600436106100435760003560e01c806346446d6a1461004f57806359ae069b14610078578063a87430ba146100a1578063c63d15fd146100df5761004a565b3661004a57005b600080fd5b34801561005b57600080fd5b506100766004803603810190610071919061089a565b610108565b005b34801561008457600080fd5b5061009f600480360381019061009a9190610955565b610356565b005b3480156100ad57600080fd5b506100c860048036038101906100c391906109fc565b610428565b6040516100d6929190610ab1565b60405180910390f35b3480156100eb57600080fd5b5061010660048036038101906101019190610b1e565b61055c565b005b8373ffffffffffffffffffffffffffffffffffffffff166302d05d3f6040518163ffffffff1660e01b815260040160206040518083038186803b15801561014e57600080fd5b505afa92505050801561017f57506040513d601f19601f8201168201806040525081019061017c9190610bc3565b60015b6101be576040517f08c379a00000000000000000000000000000000000000000000000000000000081526004016101b590610c88565b60405180910390fd5b8073ffffffffffffffffffffffffffffffffffffffff163373ffffffffffffffffffffffffffffffffffffffff161461022c576040517f08c379a000000000000000000000000000000000000000000000000000000000815260040161022390610d1a565b60405180910390fd5b50600160008573ffffffffffffffffffffffffffffffffffffffff1673ffffffffffffffffffffffffffffffffffffffff16815260200190815260200160002060009054906101000a900460ff16156102ba576040517f08c379a00000000000000000000000000000000000000000000000000000000081526004016102b190610dd2565b60405180910390fd5b60018060008673ffffffffffffffffffffffffffffffffffffffff1673ffffffffffffffffffffffffffffffffffffffff16815260200190815260200160002060006101000a81548160ff0219169083151502179055507f41adb74ebd8922361cafa5c6b63356985a765d4976cadd38650fef4cffb3c3c98484843385604051610348959493929190610e01565b60405180910390a150505050565b6040518060400160405280848152602001828152506000803373ffffffffffffffffffffffffffffffffffffffff1673ffffffffffffffffffffffffffffffffffffffff16815260200190815260200160002060008201518160000190805190602001906103c592919061063f565b5060208201518160010190805190602001906103e292919061063f565b509050507f10316ad8f515a8cfd5ba71ef574e791ff4d70f101f51d8842d128670302b308a3384848460405161041b9493929190610e69565b60405180910390a1505050565b600060205280600052604060002060009150905080600001805461044b90610ef2565b80601f016020809104026020016040519081016040528092919081815260200182805461047790610ef2565b80156104c45780601f10610499576101008083540402835291602001916104c4565b820191906000526020600020905b8154815290600101906020018083116104a757829003601f168201915b5050505050908060010180546104d990610ef2565b80601f016020809104026020016040519081016040528092919081815260200182805461050590610ef2565b80156105525780601f1061052757610100808354040283529160200191610552565b820191906000526020600020905b81548152906001019060200180831161053557829003601f168201915b5050505050905082565b8373ffffffffffffffffffffffffffffffffffffffff163373ffffffffffffffffffffffffffffffffffffffff16146105ca576040517f08c379a00000000000000000000000000000000000000000000000000000000081526004016105c190610f96565b60405180910390fd5b8373ffffffffffffffffffffffffffffffffffffffff166342842e0e8484846040518463ffffffff1660e01b815260040161060793929190610fc5565b600060405180830381600087803b15801561062157600080fd5b505af1158015610635573d6000803e3d6000fd5b5050505050505050565b82805461064b90610ef2565b90600052602060002090601f01602090048101928261066d57600085556106b4565b82601f1061068657805160ff19168380011785556106b4565b828001600101855582156106b4579182015b828111156106b3578251825591602001919060010190610698565b5b5090506106c191906106c5565b5090565b5b808211156106de5760008160009055506001016106c6565b5090565b6000604051905090565b600080fd5b600080fd5b600073ffffffffffffffffffffffffffffffffffffffff82169050919050565b6000610721826106f6565b9050919050565b61073181610716565b811461073c57600080fd5b50565b60008135905061074e81610728565b92915050565b600080fd5b600080fd5b6000601f19601f8301169050919050565b7f4e487b7100000000000000000000000000000000000000000000000000000000600052604160045260246000fd5b6107a78261075e565b810181811067ffffffffffffffff821117156107c6576107c561076f565b5b80604052505050565b60006107d96106e2565b90506107e5828261079e565b919050565b600067ffffffffffffffff8211156108055761080461076f565b5b61080e8261075e565b9050602081019050919050565b82818337600083830152505050565b600061083d610838846107ea565b6107cf565b90508281526020810184848401111561085957610858610759565b5b61086484828561081b565b509392505050565b600082601f83011261088157610880610754565b5b813561089184826020860161082a565b91505092915050565b600080600080608085870312156108b4576108b36106ec565b5b60006108c28782880161073f565b945050602085013567ffffffffffffffff8111156108e3576108e26106f1565b5b6108ef8782880161086c565b935050604085013567ffffffffffffffff8111156109105761090f6106f1565b5b61091c8782880161086c565b925050606085013567ffffffffffffffff81111561093d5761093c6106f1565b5b6109498782880161086c565b91505092959194509250565b60008060006060848603121561096e5761096d6106ec565b5b600084013567ffffffffffffffff81111561098c5761098b6106f1565b5b6109988682870161086c565b935050602084013567ffffffffffffffff8111156109b9576109b86106f1565b5b6109c58682870161086c565b925050604084013567ffffffffffffffff8111156109e6576109e56106f1565b5b6109f28682870161086c565b9150509250925092565b600060208284031215610a1257610a116106ec565b5b6000610a208482850161073f565b91505092915050565b600081519050919050565b600082825260208201905092915050565b60005b83811015610a63578082015181840152602081019050610a48565b83811115610a72576000848401525b50505050565b6000610a8382610a29565b610a8d8185610a34565b9350610a9d818560208601610a45565b610aa68161075e565b840191505092915050565b60006040820190508181036000830152610acb8185610a78565b90508181036020830152610adf8184610a78565b90509392505050565b6000819050919050565b610afb81610ae8565b8114610b0657600080fd5b50565b600081359050610b1881610af2565b92915050565b60008060008060808587031215610b3857610b376106ec565b5b6000610b468782880161073f565b9450506020610b578782880161073f565b9350506040610b688782880161073f565b9250506060610b7987828801610b09565b91505092959194509250565b6000610b90826106f6565b9050919050565b610ba081610b85565b8114610bab57600080fd5b50565b600081519050610bbd81610b97565b92915050565b600060208284031215610bd957610bd86106ec565b5b6000610be784828501610bae565b91505092915050565b7f4d61726b6574706c616365203a20637265617465436f6c6c656374696f6e202d60008201527f3e20436f6c6c656374696f6e20636f6e747261637420646f65736e277420657860208201527f6973740000000000000000000000000000000000000000000000000000000000604082015250565b6000610c72604383610a34565b9150610c7d82610bf0565b606082019050919050565b60006020820190508181036000830152610ca181610c65565b9050919050565b7f4d61726b6574706c616365203a20637265617465436f6c6c656374696f6e202d60008201527f3e2043616c6c6572206973206e6f7420636f6c6c656374696f6e206f776e6572602082015250565b6000610d04604083610a34565b9150610d0f82610ca8565b604082019050919050565b60006020820190508181036000830152610d3381610cf7565b9050919050565b7f4d61726b6574706c616365203a20637265617465436f6c6c656374696f6e202d60008201527f3e20436f6c6c656374696f6e20616c726561647920657869737473206f6e206d60208201527f61726b6574706c61636500000000000000000000000000000000000000000000604082015250565b6000610dbc604a83610a34565b9150610dc782610d3a565b606082019050919050565b60006020820190508181036000830152610deb81610daf565b9050919050565b610dfb81610716565b82525050565b600060a082019050610e166000830188610df2565b8181036020830152610e288187610a78565b90508181036040830152610e3c8186610a78565b9050610e4b6060830185610df2565b8181036080830152610e5d8184610a78565b90509695505050505050565b6000608082019050610e7e6000830187610df2565b8181036020830152610e908186610a78565b90508181036040830152610ea48185610a78565b90508181036060830152610eb88184610a78565b905095945050505050565b7f4e487b7100000000000000000000000000000000000000000000000000000000600052602260045260246000fd5b60006002820490506001821680610f0a57607f821691505b60208210811415610f1e57610f1d610ec3565b5b50919050565b7f4d61726b6574706c616365203a206d61726b6574506c6163655472616e73666560008201527f7246726f6d202d3e2043616c6c6572206973206e6f7420636f6e747261637400602082015250565b6000610f80603f83610a34565b9150610f8b82610f24565b604082019050919050565b60006020820190508181036000830152610faf81610f73565b9050919050565b610fbf81610ae8565b82525050565b6000606082019050610fda6000830186610df2565b610fe76020830185610df2565b610ff46040830184610fb6565b94935050505056fea264697066735822122001276fb629bc96b41dbe6b87b6866d36257fd760cc0fdb1eea927183f85ba86c64736f6c63430008090033",
  "immutableReferences": {},
  "source": "// SPDX-License-Identifier: MIT\npragma solidity ^0.8.6;\n\nimport \"./CustomERC721Collection.sol\";\n\ncontract Marketplace {\n    // ** User ** //\n\n    // Required user data in contract\n    struct User {\n        string name;\n        string metadataURI;\n    }\n\n    // To store users (address => User)\n    mapping(address => User) public users;\n\n    // On user creation\n    event UserCreated(\n        address uAddress,\n        string name,\n        string image,\n        string metadata\n    );\n\n    // Create/Update user profile\n    function createUser(\n        string memory name_,\n        string memory image_,\n        string memory metadata_\n    ) public {\n        // Map metadata to address\n        users[msg.sender] = User(name_, metadata_);\n\n        // Log event to subgraph\n        emit UserCreated(msg.sender, name_, image_, metadata_);\n    }\n\n    // ** Custom Collection ** //\n\n    // To store if collection is listed (address => bool)\n    mapping(address => bool) listedCollections;\n\n    // On collection creation\n    event CollectionCreated(\n        address cAddress,\n        string name,\n        string image,\n        address creator,\n        string metadata\n    );\n\n    // List collection on marketplace\n    function listCollection(\n        address cAddress_,\n        string memory name_,\n        string memory image_,\n        string memory metadata_\n    ) public {\n        // Check if collection contract exists\n        try CustomERC721Collection(cAddress_).creator() returns (\n            address payable owner_\n        ) {\n            // Check if caller is collection\n            require(\n                msg.sender == owner_,\n                \"Marketplace : createCollection -> Caller is not collection owner\"\n            );\n        } catch {\n            revert(\n                \"Marketplace : createCollection -> Collection contract doesn't exist\"\n            );\n        }\n\n        // Stop if marketplace record exists i.e. prevent updates\n        require(\n            !listedCollections[cAddress_],\n            \"Marketplace : createCollection -> Collection already exists on marketplace\"\n        );\n\n        // Store collection in marketplace\n        listedCollections[cAddress_] = true;\n\n        // Log event to subgraph\n        emit CollectionCreated(cAddress_, name_, image_, msg.sender, metadata_);\n    }\n\n    // To buy fixed price nfts\n    function marketPlaceTransferFrom(\n        address cAddress,\n        address nftOwner,\n        address newOwner,\n        uint256 tokenId\n    ) public {\n        // Check if caller is collection\n        require(\n            msg.sender == cAddress,\n            \"Marketplace : marketPlaceTransferFrom -> Caller is not contract\"\n        );\n\n        CustomERC721Collection(cAddress).safeTransferFrom(\n            nftOwner,\n            newOwner,\n            tokenId\n        );\n    }\n\n    // To receive ether\n    // Function to receive Ether. msg.data must be empty\n    receive() external payable {}\n\n    // TODO: Get Matic / USD\n}\n",
  "sourcePath": "/Users/hrushi/Projects/Crypto/nft-truffle/contracts/Marketplace.sol",
  "compiler": {
    "name": "solc",
    "version": "0.8.9+commit.e5eed63a.Emscripten.clang"
  },
  "schemaVersion": "3.4.3",
  "updatedAt": "2021-12-06T15:32:48.079Z",
  "devdoc": {
    "kind": "dev",
    "methods": {},
    "version": 1
  },
  "userdoc": {
    "kind": "user",
    "methods": {},
    "version": 1
  }
}